{
  "_format": "hh-sol-artifact-1",
  "contractName": "OpenBetEscrow",
  "sourceName": "contracts/OpenBetEscrow.sol",
  "abi": [
    {
      "inputs": [
        {
          "internalType": "address",
          "name": "_creator",
          "type": "address"
        },
        {
          "internalType": "address",
          "name": "_treasury",
          "type": "address"
        },
        {
          "internalType": "address",
          "name": "_arbiter",
          "type": "address"
        },
        {
          "internalType": "uint256",
          "name": "_feeBps",
          "type": "uint256"
        },
        {
          "internalType": "uint256",
          "name": "_disputeWindowSeconds",
          "type": "uint256"
        },
        {
          "internalType": "uint256",
          "name": "_maxExposure",
          "type": "uint256"
        },
        {
          "internalType": "uint256",
          "name": "_minPerParticipant",
          "type": "uint256"
        },
        {
          "internalType": "uint256",
          "name": "_maxPerParticipant",
          "type": "uint256"
        },
        {
          "internalType": "uint256",
          "name": "_line",
          "type": "uint256"
        },
        {
          "internalType": "uint8",
          "name": "_declaredDirection",
          "type": "uint8"
        },
        {
          "internalType": "uint256",
          "name": "_fundingDeadline",
          "type": "uint256"
        },
        {
          "internalType": "string",
          "name": "_metadataURI",
          "type": "string"
        }
      ],
      "stateMutability": "payable",
      "type": "constructor"
    },
    {
      "inputs": [],
      "name": "ReentrancyGuardReentrantCall",
      "type": "error"
    },
    {
      "anonymous": false,
      "inputs": [
        {
          "indexed": false,
          "internalType": "uint256",
          "name": "creatorRefunded",
          "type": "uint256"
        },
        {
          "indexed": false,
          "internalType": "uint256",
          "name": "totalOppositionRefunded",
          "type": "uint256"
        }
      ],
      "name": "Cancelled",
      "type": "event"
    },
    {
      "anonymous": false,
      "inputs": [
        {
          "indexed": true,
          "internalType": "address",
          "name": "by",
          "type": "address"
        }
      ],
      "name": "Disputed",
      "type": "event"
    },
    {
      "anonymous": false,
      "inputs": [
        {
          "indexed": true,
          "internalType": "enum OpenBetEscrow.Outcome",
          "name": "outcome",
          "type": "uint8"
        },
        {
          "indexed": false,
          "internalType": "uint256",
          "name": "creatorLockedStake",
          "type": "uint256"
        },
        {
          "indexed": false,
          "internalType": "uint256",
          "name": "totalOpposition",
          "type": "uint256"
        },
        {
          "indexed": false,
          "internalType": "uint256",
          "name": "fee",
          "type": "uint256"
        }
      ],
      "name": "Finalized",
      "type": "event"
    },
    {
      "anonymous": false,
      "inputs": [
        {
          "indexed": false,
          "internalType": "uint256",
          "name": "creatorLockedStake",
          "type": "uint256"
        },
        {
          "indexed": false,
          "internalType": "uint256",
          "name": "totalOpposition",
          "type": "uint256"
        },
        {
          "indexed": false,
          "internalType": "uint256",
          "name": "refundedToCreator",
          "type": "uint256"
        }
      ],
      "name": "OpenBetLocked",
      "type": "event"
    },
    {
      "anonymous": false,
      "inputs": [
        {
          "indexed": true,
          "internalType": "address",
          "name": "user",
          "type": "address"
        },
        {
          "indexed": false,
          "internalType": "uint256",
          "name": "amount",
          "type": "uint256"
        },
        {
          "indexed": false,
          "internalType": "uint256",
          "name": "totalOpposition",
          "type": "uint256"
        }
      ],
      "name": "OppositionJoined",
      "type": "event"
    },
    {
      "anonymous": false,
      "inputs": [
        {
          "indexed": true,
          "internalType": "enum OpenBetEscrow.Outcome",
          "name": "outcome",
          "type": "uint8"
        },
        {
          "indexed": true,
          "internalType": "address",
          "name": "proposedBy",
          "type": "address"
        },
        {
          "indexed": false,
          "internalType": "uint256",
          "name": "disputeDeadline",
          "type": "uint256"
        }
      ],
      "name": "WinnerProposed",
      "type": "event"
    },
    {
      "inputs": [],
      "name": "arbiter",
      "outputs": [
        {
          "internalType": "address",
          "name": "",
          "type": "address"
        }
      ],
      "stateMutability": "view",
      "type": "function"
    },
    {
      "inputs": [
        {
          "internalType": "enum OpenBetEscrow.Outcome",
          "name": "outcome",
          "type": "uint8"
        }
      ],
      "name": "arbiterFinalize",
      "outputs": [],
      "stateMutability": "nonpayable",
      "type": "function"
    },
    {
      "inputs": [],
      "name": "canLock",
      "outputs": [
        {
          "internalType": "bool",
          "name": "",
          "type": "bool"
        }
      ],
      "stateMutability": "view",
      "type": "function"
    },
    {
      "inputs": [],
      "name": "cancel",
      "outputs": [],
      "stateMutability": "nonpayable",
      "type": "function"
    },
    {
      "inputs": [
        {
          "internalType": "address",
          "name": "",
          "type": "address"
        }
      ],
      "name": "contributions",
      "outputs": [
        {
          "internalType": "uint256",
          "name": "",
          "type": "uint256"
        }
      ],
      "stateMutability": "view",
      "type": "function"
    },
    {
      "inputs": [],
      "name": "creator",
      "outputs": [
        {
          "internalType": "address",
          "name": "",
          "type": "address"
        }
      ],
      "stateMutability": "view",
      "type": "function"
    },
    {
      "inputs": [],
      "name": "creatorLockedStake",
      "outputs": [
        {
          "internalType": "uint256",
          "name": "",
          "type": "uint256"
        }
      ],
      "stateMutability": "view",
      "type": "function"
    },
    {
      "inputs": [],
      "name": "declaredDirection",
      "outputs": [
        {
          "internalType": "uint8",
          "name": "",
          "type": "uint8"
        }
      ],
      "stateMutability": "view",
      "type": "function"
    },
    {
      "inputs": [],
      "name": "dispute",
      "outputs": [],
      "stateMutability": "nonpayable",
      "type": "function"
    },
    {
      "inputs": [],
      "name": "disputeDeadline",
      "outputs": [
        {
          "internalType": "uint256",
          "name": "",
          "type": "uint256"
        }
      ],
      "stateMutability": "view",
      "type": "function"
    },
    {
      "inputs": [],
      "name": "disputeWindowSeconds",
      "outputs": [
        {
          "internalType": "uint256",
          "name": "",
          "type": "uint256"
        }
      ],
      "stateMutability": "view",
      "type": "function"
    },
    {
      "inputs": [],
      "name": "disputed",
      "outputs": [
        {
          "internalType": "bool",
          "name": "",
          "type": "bool"
        }
      ],
      "stateMutability": "view",
      "type": "function"
    },
    {
      "inputs": [],
      "name": "escrowType",
      "outputs": [
        {
          "internalType": "uint8",
          "name": "",
          "type": "uint8"
        }
      ],
      "stateMutability": "pure",
      "type": "function"
    },
    {
      "inputs": [],
      "name": "feeBps",
      "outputs": [
        {
          "internalType": "uint256",
          "name": "",
          "type": "uint256"
        }
      ],
      "stateMutability": "view",
      "type": "function"
    },
    {
      "inputs": [],
      "name": "finalize",
      "outputs": [],
      "stateMutability": "nonpayable",
      "type": "function"
    },
    {
      "inputs": [],
      "name": "fundingDeadline",
      "outputs": [
        {
          "internalType": "uint256",
          "name": "",
          "type": "uint256"
        }
      ],
      "stateMutability": "view",
      "type": "function"
    },
    {
      "inputs": [],
      "name": "getParticipants",
      "outputs": [
        {
          "internalType": "address[]",
          "name": "",
          "type": "address[]"
        }
      ],
      "stateMutability": "view",
      "type": "function"
    },
    {
      "inputs": [],
      "name": "getRemainingExposure",
      "outputs": [
        {
          "internalType": "uint256",
          "name": "",
          "type": "uint256"
        }
      ],
      "stateMutability": "view",
      "type": "function"
    },
    {
      "inputs": [],
      "name": "joinOpposition",
      "outputs": [],
      "stateMutability": "payable",
      "type": "function"
    },
    {
      "inputs": [],
      "name": "line",
      "outputs": [
        {
          "internalType": "uint256",
          "name": "",
          "type": "uint256"
        }
      ],
      "stateMutability": "view",
      "type": "function"
    },
    {
      "inputs": [],
      "name": "lockMarket",
      "outputs": [],
      "stateMutability": "nonpayable",
      "type": "function"
    },
    {
      "inputs": [],
      "name": "maxExposure",
      "outputs": [
        {
          "internalType": "uint256",
          "name": "",
          "type": "uint256"
        }
      ],
      "stateMutability": "view",
      "type": "function"
    },
    {
      "inputs": [],
      "name": "maxPerParticipant",
      "outputs": [
        {
          "internalType": "uint256",
          "name": "",
          "type": "uint256"
        }
      ],
      "stateMutability": "view",
      "type": "function"
    },
    {
      "inputs": [],
      "name": "metadataURI",
      "outputs": [
        {
          "internalType": "string",
          "name": "",
          "type": "string"
        }
      ],
      "stateMutability": "view",
      "type": "function"
    },
    {
      "inputs": [],
      "name": "minPerParticipant",
      "outputs": [
        {
          "internalType": "uint256",
          "name": "",
          "type": "uint256"
        }
      ],
      "stateMutability": "view",
      "type": "function"
    },
    {
      "inputs": [
        {
          "internalType": "uint256",
          "name": "",
          "type": "uint256"
        }
      ],
      "name": "participants",
      "outputs": [
        {
          "internalType": "address",
          "name": "",
          "type": "address"
        }
      ],
      "stateMutability": "view",
      "type": "function"
    },
    {
      "inputs": [
        {
          "internalType": "enum OpenBetEscrow.Outcome",
          "name": "outcome",
          "type": "uint8"
        }
      ],
      "name": "proposeWinner",
      "outputs": [],
      "stateMutability": "nonpayable",
      "type": "function"
    },
    {
      "inputs": [],
      "name": "proposedBy",
      "outputs": [
        {
          "internalType": "address",
          "name": "",
          "type": "address"
        }
      ],
      "stateMutability": "view",
      "type": "function"
    },
    {
      "inputs": [],
      "name": "proposedOutcome",
      "outputs": [
        {
          "internalType": "enum OpenBetEscrow.Outcome",
          "name": "",
          "type": "uint8"
        }
      ],
      "stateMutability": "view",
      "type": "function"
    },
    {
      "inputs": [],
      "name": "state",
      "outputs": [
        {
          "internalType": "enum OpenBetEscrow.State",
          "name": "",
          "type": "uint8"
        }
      ],
      "stateMutability": "view",
      "type": "function"
    },
    {
      "inputs": [],
      "name": "totalOpposition",
      "outputs": [
        {
          "internalType": "uint256",
          "name": "",
          "type": "uint256"
        }
      ],
      "stateMutability": "view",
      "type": "function"
    },
    {
      "inputs": [],
      "name": "treasury",
      "outputs": [
        {
          "internalType": "address",
          "name": "",
          "type": "address"
        }
      ],
      "stateMutability": "view",
      "type": "function"
    }
  ],
  "bytecode": "0x60406080815262001e2e80380390816200001981620004ed565b918239610180818381010312620004e857620000358162000513565b9060206200004581830162000513565b936200005386840162000513565b946060840151608085015160a086015160c08701519060e088015192610100890151946101208a01519b60ff8d16809d03620004e8576101408b0151976101608c01519960018060401b039c8d8c11620004e857818101601f8d8301011215620004e857808c01519b8e8d1162000308578d8d93620000db82601f19601f88011601620004ed565b9e8f5283019084838501010111620004e8578d919060008e5b858210620004d057915050600093915001015260019c8d60005560018060a01b03809116918215620004995781169283156200046157169182156200042b578515620003e757428a1115620003a3578615158062000398575b1562000362578534036200031e578d60018060a01b03199283825416179055816002541617600255600354161760035560045560055580600955600b55600c55600d5560065560ff199586600754161760075560085580519283116200030857600e548481811c91168015620002fd575b83821014620002e757601f811162000298575b5081601f84116001146200022b57509282939183926000946200021f575b50501b916000199060031b1c191617600e555b8060115416601155600f5416600f55516119059081620005298239f35b015192503880620001ef565b919083601f198116600e60005284600020946000905b888383106200027d575050501062000263575b505050811b01600e5562000202565b015160001960f88460031b161c1916905538808062000254565b85870151885590960195948501948793509081019062000241565b600e60005282600020601f850160051c810191848610620002dc575b601f0160051c019085905b828110620002cf575050620001d1565b60008155018590620002bf565b9091508190620002b4565b634e487b7160e01b600052602260045260246000fd5b90607f1690620001be565b634e487b7160e01b600052604160045260246000fd5b8f5162461bcd60e51b8152600481018d9052601a60248201527f43726561746f72206d7573742066756e64206578706f737572650000000000006044820152606490fd5b8f5162461bcd60e51b8152600481018d9052600f60248201526e092dcecc2d8d2c840dad2dc5edac2f608b1b6044820152606490fd5b50868810156200014d565b8f5162461bcd60e51b8152600481018d9052601760248201527f446561646c696e65206d757374206265206675747572650000000000000000006044820152606490fd5b8f5162461bcd60e51b8152600481018d9052601460248201527f4578706f73757265206d757374206265203e20300000000000000000000000006044820152606490fd5b8f5162461bcd60e51b8152600481018d9052600f60248201526e24b73b30b634b21030b93134ba32b960891b6044820152606490fd5b508f5162461bcd60e51b8152600481018d9052601060248201526f496e76616c696420747265617375727960801b6044820152606490fd5b508f5162461bcd60e51b8152600481018d9052600f60248201526e24b73b30b634b21031b932b0ba37b960891b6044820152606490fd5b83830182018501519082018501528f93018e620000f4565b600080fd5b6040519190601f01601f191682016001600160401b038111838210176200030857604052565b51906001600160a01b0382168203620004e85756fe608060408181526004918236101561001657600080fd5b600092833560e01c918263027b43c0146110365750816302d05d3f1461100d57816303ee438c14610ec95781630695c46c14610ea257816309a0dfd114610c99578163216e283f14610c7a578163232877d014610c5b57816324a9d85314610c3d57816335c1d34914610bfc57816342e94c9014610bc25781634addc04c14610ba05781634bb278f314610a955781634f8cc292146109815781635aa68ac0146108bc57816360c926131461088f57816361d027b3146108665781636732e639146108475781636cbb721f146108215781637261a28a146107f6578163796b23bb146107d75781639925279a146107985781639e1ae2a014610779578163a9b947d81461075a578163b56b83531461073b578163c19d93fb1461070f578163ea8a1af014610698578163ed1ef4801461067c578163f09df1891461065d578163f240f7c3146104af578163f481d3be14610470578163fdcc3251146101b0575063fe25e00a1461018557600080fd5b346101ac57816003193601126101ac5760035490516001600160a01b039091168152602090f35b5080fd5b90508260031936011261046c5760ff60115416600681101561045957806101da6101eb9215611160565b82811415908161044d575b50611197565b600854421015610419576001546001600160a01b0390811633146103e057600c5434106103b1573415610379573384526012602052828420549161022f34846111d3565b92600d5484116103415761024534600a546111d3565b6009541061030b57156102b8575b505033835260126020528183205561026d34600a546111d3565b9081600a557f15e6e7ff8d528b5a9ca8864f3fc582093088bd002536ca760205790ea2586a088151913483528360208401523392a2600954146102ad5780f35b6102b56113ba565b80f35b60135490680100000000000000008210156102f857508060016102de920160135561108a565b819291549060031b9133831b921b19161790553880610253565b634e487b7160e01b865260419052602485fd5b845162461bcd60e51b8152602081840152601060248201526f45786365656473206578706f7375726560801b6044820152606490fd5b845162461bcd60e51b8152602081840152601260248201527120b137bb329036b0bc103832b9103ab9b2b960711b6044820152606490fd5b506020606492519162461bcd60e51b835282015260126024820152710416d6f756e74206d757374206265203e20360741b6044820152fd5b506020606492519162461bcd60e51b835282015260096024820152682132b637bb9036b4b760b91b6044820152fd5b506020606492519162461bcd60e51b8352820152601360248201527221b932b0ba37b91031b0b73737ba103537b4b760691b6044820152fd5b6020606492519162461bcd60e51b8352820152600f60248201526e119d5b991a5b99c8195e1c1a5c9959608a1b6044820152fd5b600591501415386101e5565b634e487b7160e01b845260218252602484fd5b8280fd5b8383346101ac57816003193601126101ac5760ff600f5416905191600382101561049c57602083838152f35b634e487b7160e01b815260218452602490fd5b839150346101ac57816003193601126101ac576001546001600160a01b0390811633148015610649575b6104e290611271565b6011549160ff8316600681101580610636578282141580610628575b61050790611197565b610615576002036105e35760105442116105b057600f54918260081c16331461056d575060ff60a81b1916600160a81b17600f5560ff1916600317601155337f695fbf2fe28b4fde5705122279ffc4160ebfc0f45e4d96f7e6699001be5062ef8280a280f35b606490602086519162461bcd60e51b8352820152601760248201527f50726f706f7365722063616e6e6f7420646973707574650000000000000000006044820152fd5b606490602086519162461bcd60e51b8352820152600d60248201526c15da5b991bddc818db1bdcd959609a1b6044820152fd5b606490602086519162461bcd60e51b8352820152600c60248201526b139bdd081c1c9bdc1bdcd95960a21b6044820152fd5b634e487b7160e01b855260218252602485fd5b5085905060058214156104fe565b634e487b7160e01b865260218352602486fd5b5033835260126020528383205415156104d9565b5050346101ac57816003193601126101ac57602090600a549051908152f35b5050346101ac57816003193601126101ac576020905160018152f35b833461070c578060031936011261070c5760ff6011541660068110156106f9576106d691926106c78215611160565b81141590816106ed5750611197565b6106de61124e565b6106e6611329565b6001815580f35b600591501415836101e5565b506021602492634e487b7160e01b835252fd5b80fd5b8383346101ac57816003193601126101ac5760ff60115416905191600682101561049c57602083838152f35b5050346101ac57816003193601126101ac576020906006549051908152f35b5050346101ac57816003193601126101ac57602090600d549051908152f35b5050346101ac57816003193601126101ac576020906009549051908152f35b833461070c578060031936011261070c5760ff6011541660068110156106f9576107c791926106c78215611160565b6107cf61124e565b6106e66111e0565b5050346101ac57816003193601126101ac576020906008549051908152f35b5050346101ac57816003193601126101ac5760209061081a600954600a54906110d7565b9051908152f35b5050346101ac57816003193601126101ac5760209061083e6110fa565b90519015158152f35b5050346101ac57816003193601126101ac57602090600b549051908152f35b5050346101ac57816003193601126101ac5760025490516001600160a01b039091168152602090f35b5050346101ac57816003193601126101ac57600f54905160089190911c6001600160a01b03168152602090f35b82843461070c578060031936011261070c579080519182906013549182855260208095018093601384527f66de8ffda797e3de9c05e8fc57b3bf0ec28a930d40b0d285d93c06501cf6a09090845b8181106109645750505081610920910382611052565b83519485948186019282875251809352850193925b82811061094457505050500390f35b83516001600160a01b031685528695509381019392810192600101610935565b82546001600160a01b03168452928801926001928301920161090a565b90503461046c57602036600319011261046c578035916003831015610a91576003546001600160a01b03163303610a605760ff601154166006811015610a4d5780836109d5921415908161044d5750611197565b6109dd61124e565b60ff601154166006811015610a4d57600303610a1b57836106e684600181148015610a11575b610a0c906112eb565b61158d565b5060028114610a03565b906020606492519162461bcd60e51b8352820152600c60248201526b139bdd08191a5cdc1d5d195960a21b6044820152fd5b634e487b7160e01b855260218352602485fd5b906020606492519162461bcd60e51b8352820152600b60248201526a2737ba1030b93134ba32b960a91b6044820152fd5b8380fd5b90503461046c578260031936011261046c5760ff601154166006811015610459578082610aca921415908161044d5750611197565b610ad261124e565b60ff60115416600681101561045957600203610b6c57601054421115610b3c57600f549160ff8360a81c16610b0e57836106e660ff851661158d565b906020606492519162461bcd60e51b83528201526008602482015267111a5cdc1d5d195960c21b6044820152fd5b6020606492519162461bcd60e51b8352820152600b60248201526a2bb4b73237bb9037b832b760a91b6044820152fd5b6020606492519162461bcd60e51b8352820152600f60248201526e4e6f742066696e616c697a61626c6560881b6044820152fd5b5050346101ac57816003193601126101ac5760209060ff600754169051908152f35b90503461046c57602036600319011261046c57356001600160a01b0381169081900361046c57828291602094526012845220549051908152f35b90503461046c57602036600319011261046c57359160135483101561070c5750610c2760209261108a565b905491519160018060a01b039160031b1c168152f35b90503461046c578260031936011261046c5760209250549051908152f35b5050346101ac57816003193601126101ac576020906005549051908152f35b5050346101ac57816003193601126101ac576020906010549051908152f35b9190503461046c57602036600319011261046c578135906003821015610a91576001546001600160a01b031633148015610e8e575b610cd790611271565b60ff60115416600681101580610e7b578482141580610e6d575b610cfa90611197565b610e5a5715610e08575b6011549260ff84166006811015610df557600103610dc65784600184148015610db9575b610d31906112eb565b610da65750600f80543360081b610100600160a81b03166001600160b01b031990911660ff851617179055600554600290610d6c90426111d3565b938460105560ff191617601155519182527fc4c4bff1bbd730f214a9910a0ced506484c88e68e46c0651e4e4c5c80b39f93660203393a380f35b634e487b7160e01b855260219052602484fd5b5085905060028414610d28565b6020606492519162461bcd60e51b8352820152600a602482015269139bdd081b1bd8dad95960b21b6044820152fd5b634e487b7160e01b865260218252602486fd5b6008544210610e2b57610e1e600a5415156112af565b610e266113ba565b610d04565b5162461bcd60e51b8152602081840152600a60248201526929ba34b6361037b832b760b11b6044820152606490fd5b634e487b7160e01b855260218452602485fd5b508590506005821415610cf1565b634e487b7160e01b865260218552602486fd5b503384526012602052808420541515610cce565b5050346101ac57816003193601126101ac5760209060ff600f5460a81c1690519015158152f35b82843461070c578060031936011261070c5781519080600e54600181811c918181168015611003575b6020988985108214610ff05750918391899593889586529081600014610fcf5750600114610f73575b5050610f2d9250959392950382611052565b82519382859384528251928382860152825b848110610f5d57505050828201840152601f01601f19168101030190f35b8181018301518882018801528795508201610f3f565b600e86527fbb7b4a454dc3493923482f07822329ed19e8244eff582cc204f8554c3620c3fd9492508591905b818310610fb7575088945050820101610f2d88610f1b565b85548884018501529485019487945091830191610f9f565b915050610f2d94925060ff191682840152151560051b820101869288610f1b565b634e487b7160e01b875260229052602486fd5b92607f1692610ef2565b5050346101ac57816003193601126101ac5760015490516001600160a01b039091168152602090f35b8490346101ac57816003193601126101ac57602090600c548152f35b90601f8019910116810190811067ffffffffffffffff82111761107457604052565b634e487b7160e01b600052604160045260246000fd5b6013548110156110c15760136000527f66de8ffda797e3de9c05e8fc57b3bf0ec28a930d40b0d285d93c06501cf6a0900190600090565b634e487b7160e01b600052603260045260246000fd5b919082039182116110e457565b634e487b7160e01b600052601160045260246000fd5b60ff60115416600681101561114a5761114557600a54600954811461113f576008544210159081611135575b5061113057600090565b600190565b9050151538611126565b50600190565b600090565b634e487b7160e01b600052602160045260246000fd5b1561116757565b60405162461bcd60e51b81526020600482015260086024820152672737ba1037b832b760c11b6044820152606490fd5b1561119e57565b60405162461bcd60e51b815260206004820152600d60248201526c115cd8dc9bddc818db1bdcd959609a1b6044820152606490fd5b919082018092116110e457565b600a5460095481148015611242575b1561120b5715611203576112016113ba565b565b6112016114c9565b60405162461bcd60e51b815260206004820152600f60248201526e10d85b9b9bdd081b1bd8dac81e595d608a1b6044820152606490fd5b506008544210156111ef565b60026000541461125f576002600055565b604051633ee5aeb560e01b8152600490fd5b1561127857565b60405162461bcd60e51b815260206004820152600f60248201526e139bdd081c185c9d1a58da5c185b9d608a1b6044820152606490fd5b156112b657565b60405162461bcd60e51b815260206004820152600d60248201526c27379037b83837b9b4ba34b7b760991b6044820152606490fd5b156112f257565b60405162461bcd60e51b815260206004820152600f60248201526e496e76616c6964206f7574636f6d6560881b6044820152606490fd5b60085442111561138057600a54156112035760405162461bcd60e51b815260206004820152601b60248201527f416374697665206f70706f736974696f6e206d757374206c6f636b00000000006044820152606490fd5b60405162461bcd60e51b8152602060048201526012602482015271233ab73234b7339039ba34b6361037b832b760711b6044820152606490fd5b60ff60115416600681101561114a5761148d57600a546113db8115156112af565b60006009548092106000146114635750507fc5d59e7b090c03cf8ea685500f0ed3f44d0a55e361f0e09734adb9965bc46f0a60095461141d600a5480926110d7565b90600b556114358160018060a01b036001541661181e565b6011805460ff19166001179055600b54600a54604080519283526020830191909152810191909152606090a1565b7fc5d59e7b090c03cf8ea685500f0ed3f44d0a55e361f0e09734adb9965bc46f0a91600b55611435565b60405162461bcd60e51b8152602060048201526014602482015273105b1c9958591e481d1c985b9cda5d1a5bdb995960621b6044820152606490fd5b60115460ff8116600681101561114a576114e39015611160565b600a546115415760ff19166005176011556001547fa761582a460180d55522f9f5fdc076390a1f48a7a62a8afbd45c1bb797948edb9060409047906115329082906001600160a01b031661181e565b815190815260006020820152a1565b60405162461bcd60e51b81526020600482015260116024820152704f70706f736974696f6e2065786973747360781b6044820152606490fd5b818102929181159184041417156110e457565b6003808210158061114a5760019081841490818015611811575b156117d457600b5492831561178f57600a549485156115c681156112af565b6004906011928260ff198554161784556115e089896111d3565b966115fa6127106115f286548b61157a565b0480996110d7565b9688611773575b61175e571561166f57505091547f9a2087478f16b801ecd568a6676f5db758bda2a01b954b2c754257d11eb3770b96959461166a9490935061164d9250906001600160a01b031661181e565b604051938493846040919493926060820195825260208201520152565b0390a2565b8460009693949596905b6116b1575b505050505050509061166a7f9a2087478f16b801ecd568a6676f5db758bda2a01b954b2c754257d11eb3770b939261164d565b601354811015611759576116c48161108a565b60018060a01b03915490841b1c16806000528360126020908082526040918260002054801561174e576116f7908a61157a565b9361173a578e9285949260009261171597845252812055049061181e565b600019811461172657860186611679565b8585634e487b7160e01b6000525260246000fd5b5088634e487b7160e01b6000525260246000fd5b505050505050611715565b61167e565b602184634e487b7160e01b6000525260246000fd5b60025461178a908a906001600160a01b031661181e565b611601565b60405162461bcd60e51b815260206004820152601760248201527f4e6f206c6f636b65642063726561746f72207374616b650000000000000000006044820152606490fd5b60405162461bcd60e51b8152602060048201526015602482015274496e76616c69642066696e616c206f7574636f6d6560581b6044820152606490fd5b50506000600285146115a7565b81156118cb57600080808094819460018060a01b03165af1903d156118c5573d9067ffffffffffffffff82116118b15760405191611866601f8201601f191660200184611052565b825260203d92013e5b1561187657565b60405162461bcd60e51b8152602060048201526013602482015272115512081d1c985b9cd9995c8819985a5b1959606a1b6044820152606490fd5b634e487b7160e01b81526041600452602490fd5b5061186f565b505056fea2646970667358221220941a0d709ea73a3e308973fa5eed6b9626ff9318353e18e63b552c9fdebd130664736f6c63430008140033",
  "linkReferences": {},
  "deployedLinkReferences": {}
}