{
  "_format": "hh-sol-artifact-1",
  "contractName": "PreDEXFactory",
  "sourceName": "contracts/PreDEXFactory.sol",
  "abi": [
    {
      "inputs": [
        {
          "internalType": "address",
          "name": "_treasury",
          "type": "address"
        },
        {
          "internalType": "address",
          "name": "_arbiter",
          "type": "address"
        },
        {
          "internalType": "uint256",
          "name": "_disputeWindowSeconds",
          "type": "uint256"
        }
      ],
      "stateMutability": "nonpayable",
      "type": "constructor"
    },
    {
      "anonymous": false,
      "inputs": [
        {
          "indexed": true,
          "internalType": "address",
          "name": "escrow",
          "type": "address"
        },
        {
          "indexed": true,
          "internalType": "address",
          "name": "partyA",
          "type": "address"
        },
        {
          "indexed": true,
          "internalType": "address",
          "name": "partyB",
          "type": "address"
        },
        {
          "indexed": false,
          "internalType": "uint256",
          "name": "stakeAmount",
          "type": "uint256"
        },
        {
          "indexed": false,
          "internalType": "uint256",
          "name": "fundingDeadline",
          "type": "uint256"
        }
      ],
      "name": "EscrowCreated",
      "type": "event"
    },
    {
      "anonymous": false,
      "inputs": [
        {
          "indexed": true,
          "internalType": "address",
          "name": "escrow",
          "type": "address"
        },
        {
          "indexed": true,
          "internalType": "address",
          "name": "creator",
          "type": "address"
        },
        {
          "indexed": false,
          "internalType": "uint256",
          "name": "maxExposure",
          "type": "uint256"
        },
        {
          "indexed": false,
          "internalType": "uint256",
          "name": "minPerParticipant",
          "type": "uint256"
        },
        {
          "indexed": false,
          "internalType": "uint256",
          "name": "maxPerParticipant",
          "type": "uint256"
        },
        {
          "indexed": false,
          "internalType": "uint256",
          "name": "line",
          "type": "uint256"
        },
        {
          "indexed": false,
          "internalType": "uint8",
          "name": "declaredDirection",
          "type": "uint8"
        },
        {
          "indexed": false,
          "internalType": "uint256",
          "name": "fundingDeadline",
          "type": "uint256"
        },
        {
          "indexed": false,
          "internalType": "string",
          "name": "metadataURI",
          "type": "string"
        }
      ],
      "name": "OpenBetCreated",
      "type": "event"
    },
    {
      "inputs": [
        {
          "internalType": "uint256",
          "name": "",
          "type": "uint256"
        }
      ],
      "name": "allEscrows",
      "outputs": [
        {
          "internalType": "address",
          "name": "",
          "type": "address"
        }
      ],
      "stateMutability": "view",
      "type": "function"
    },
    {
      "inputs": [],
      "name": "arbiter",
      "outputs": [
        {
          "internalType": "address",
          "name": "",
          "type": "address"
        }
      ],
      "stateMutability": "view",
      "type": "function"
    },
    {
      "inputs": [
        {
          "internalType": "address",
          "name": "_partyB",
          "type": "address"
        },
        {
          "internalType": "uint256",
          "name": "_stakeAmount",
          "type": "uint256"
        },
        {
          "internalType": "uint256",
          "name": "_fundingDeadline",
          "type": "uint256"
        }
      ],
      "name": "createEscrow",
      "outputs": [
        {
          "internalType": "address",
          "name": "",
          "type": "address"
        }
      ],
      "stateMutability": "payable",
      "type": "function"
    },
    {
      "inputs": [
        {
          "internalType": "uint256",
          "name": "_maxExposure",
          "type": "uint256"
        },
        {
          "internalType": "uint256",
          "name": "_minPerParticipant",
          "type": "uint256"
        },
        {
          "internalType": "uint256",
          "name": "_maxPerParticipant",
          "type": "uint256"
        },
        {
          "internalType": "uint256",
          "name": "_line",
          "type": "uint256"
        },
        {
          "internalType": "uint8",
          "name": "_declaredDirection",
          "type": "uint8"
        },
        {
          "internalType": "uint256",
          "name": "_fundingDeadline",
          "type": "uint256"
        },
        {
          "internalType": "string",
          "name": "_metadataURI",
          "type": "string"
        }
      ],
      "name": "createOpenBet",
      "outputs": [
        {
          "internalType": "address",
          "name": "",
          "type": "address"
        }
      ],
      "stateMutability": "payable",
      "type": "function"
    },
    {
      "inputs": [],
      "name": "disputeWindowSeconds",
      "outputs": [
        {
          "internalType": "uint256",
          "name": "",
          "type": "uint256"
        }
      ],
      "stateMutability": "view",
      "type": "function"
    },
    {
      "inputs": [],
      "name": "feeBps",
      "outputs": [
        {
          "internalType": "uint256",
          "name": "",
          "type": "uint256"
        }
      ],
      "stateMutability": "view",
      "type": "function"
    },
    {
      "inputs": [],
      "name": "getEscrowCount",
      "outputs": [
        {
          "internalType": "uint256",
          "name": "",
          "type": "uint256"
        }
      ],
      "stateMutability": "view",
      "type": "function"
    },
    {
      "inputs": [],
      "name": "getEscrows",
      "outputs": [
        {
          "internalType": "address[]",
          "name": "",
          "type": "address[]"
        }
      ],
      "stateMutability": "view",
      "type": "function"
    },
    {
      "inputs": [],
      "name": "treasury",
      "outputs": [
        {
          "internalType": "address",
          "name": "",
          "type": "address"
        }
      ],
      "stateMutability": "view",
      "type": "function"
    }
  ],
  "bytecode": "0x60803461015d57601f6139af38819003918201601f191683019291906001600160401b0384118385101761016257816060928492604096875283398101031261015d5761004b81610178565b908261005960208301610178565b9101516064600355916001600160a01b0390811691821561012657169081156100f05782156100ac5760018060a01b031990816000541617600055600154161760015560025551613822908161018d8239f35b835162461bcd60e51b815260206004820152601660248201527f496e76616c696420646973707574652077696e646f77000000000000000000006044820152606490fd5b835162461bcd60e51b815260206004820152600f60248201526e24b73b30b634b21030b93134ba32b960891b6044820152606490fd5b845162461bcd60e51b815260206004820152601060248201526f496e76616c696420747265617375727960801b6044820152606490fd5b600080fd5b634e487b7160e01b600052604160045260246000fd5b51906001600160a01b038216820361015d5756fe60806040818152600491823610156200001757600080fd5b60009260e08435811c92836316b15135146200073f575082631d3afee614620006e1578263232877d014620006bf57826324a9d853146200069d57826361d027b314620006725782636afcb6da146200057957826381b033a414620002dc578263e2ecb31114620000c157505063fe25e00a146200009457600080fd5b34620000bd5781600319360112620000bd5760015490516001600160a01b039091168152602090f35b5080fd5b909291506060366003190112620002d85782356001600160a01b038181169291839003620002d4576024803592604435968515620002a1578533146200025f5784156200022957620001154289116200075d565b843403620001e7578389541684600154166002549189519561115c908188019588871067ffffffffffffffff881117620001d6575050908694939291620026918639338452896020850152888b8501528b6060850152608084015260a083015260c082015203019034f08015620001cc576020965016936200019785620007aa565b835191825285820152837f8de9648925318a4011d9b77a169a4debb04642dff004df3972f3a88a54ca0155843393a451908152f35b84513d88823e3d90fd5b634e487b7160e01b8f52604190528dfd5b606490601c8460208a519362461bcd60e51b85528401528201527f5374616b65206d7573742062652073656e7420627920706172747941000000006044820152fd5b60649060118460208a519362461bcd60e51b85528401528201527005374616b65206d757374206265203e203607c1b6044820152fd5b60649060198460208a519362461bcd60e51b85528401528201527f43616e6e6f7420776167657220616761696e73742073656c66000000000000006044820152fd5b606490600e8460208a519362461bcd60e51b85528401528201526d24b73b30b634b2103830b93a3ca160911b6044820152fd5b8580fd5b8380fd5b8091939250600319360112620002d85760843560ff8116809103620005755760c4359067ffffffffffffffff8083116200057157366023840112156200057157828601358181116200056d576024963688838701011162000569578035938415620005305760a43591620003524284116200075d565b89359a8b15158062000523575b15620004ef57863403620004ad5780546001546003546002548d51611e2e8082019b6001600160a01b039892969395891693891692908d11878e1017620004945750620008638639338b5260208b01528d8a0152606089015260808801528760a08801528c60c088015280620004066044359a8b8d8b01526064359e8f6101008c0152876101208c0152886101408c015261018091826101608d0152019901888a62000841565b039034f09081156200048957509260209b95927fccfe0e2356c78318aa2ed69d3b31a1dd425c522425c12a6c8f5310665f25cf3d9795926200048095169b8c99620004518b620007aa565b8c5198899889528f8901528c8801526060870152608086015260a08501528760c0850152339784019162000841565b0390a351908152f35b8a51903d90823e3d90fd5b634e487b7160e01b885260419052508f96505050505050fd5b895162461bcd60e51b8152602081840152601a818d01527f43726561746f72206d7573742066756e64206578706f737572650000000000006044820152606490fd5b895162461bcd60e51b8152602081840152600f818d01526e092dcecc2d8d2c840dad2dc5edac2f608b1b6044820152606490fd5b508b60443510156200035f565b875162461bcd60e51b81526020818401526014818b01527304578706f73757265206d757374206265203e20360641b6044820152606490fd5b8880fd5b8780fd5b8680fd5b8480fd5b508284346200066f57806003193601126200066f5781518091845493848352602080930180958784527f8a35acfbc15ff81a39ae7d344fd709f28e8600b4aa8c65c6b64bfe7fe36bd19b90845b86828210620006515750505050849003601f01601f191684019567ffffffffffffffff8711858810176200063e575085815282865292518583018190528594938501939290915b8281106200061d57505050500390f35b83516001600160a01b0316855286955093810193928101926001016200060d565b634e487b7160e01b835260419052602482fd5b83546001600160a01b031685529093019260019283019201620005c6565b80fd5b50505034620000bd5781600319360112620000bd57905490516001600160a01b039091168152602090f35b50505034620000bd5781600319360112620000bd576020906003549051908152f35b50505034620000bd5781600319360112620000bd576020906002549051908152f35b509050346200073b5760203660031901126200073b578035908054821015620002d8576020935260018060a01b03907f8a35acfbc15ff81a39ae7d344fd709f28e8600b4aa8c65c6b64bfe7fe36bd19b0154169051908152f35b8280fd5b859083346200073b57826003193601126200073b5760209250548152f35b156200076557565b60405162461bcd60e51b815260206004820152601760248201527f446561646c696e65206d757374206265206675747572650000000000000000006044820152606490fd5b600454680100000000000000008110156200082b576001810180600455811015620008155760046000527f8a35acfbc15ff81a39ae7d344fd709f28e8600b4aa8c65c6b64bfe7fe36bd19b0180546001600160a01b0319166001600160a01b03909216919091179055565b634e487b7160e01b600052603260045260246000fd5b634e487b7160e01b600052604160045260246000fd5b908060209392818452848401376000828201840152601f01601f191601019056fe60406080815262001e2e80380390816200001981620004ed565b918239610180818381010312620004e857620000358162000513565b9060206200004581830162000513565b936200005386840162000513565b946060840151608085015160a086015160c08701519060e088015192610100890151946101208a01519b60ff8d16809d03620004e8576101408b0151976101608c01519960018060401b039c8d8c11620004e857818101601f8d8301011215620004e857808c01519b8e8d1162000308578d8d93620000db82601f19601f88011601620004ed565b9e8f5283019084838501010111620004e8578d919060008e5b858210620004d057915050600093915001015260019c8d60005560018060a01b03809116918215620004995781169283156200046157169182156200042b578515620003e757428a1115620003a3578615158062000398575b1562000362578534036200031e578d60018060a01b03199283825416179055816002541617600255600354161760035560045560055580600955600b55600c55600d5560065560ff199586600754161760075560085580519283116200030857600e548481811c91168015620002fd575b83821014620002e757601f811162000298575b5081601f84116001146200022b57509282939183926000946200021f575b50501b916000199060031b1c191617600e555b8060115416601155600f5416600f55516119059081620005298239f35b015192503880620001ef565b919083601f198116600e60005284600020946000905b888383106200027d575050501062000263575b505050811b01600e5562000202565b015160001960f88460031b161c1916905538808062000254565b85870151885590960195948501948793509081019062000241565b600e60005282600020601f850160051c810191848610620002dc575b601f0160051c019085905b828110620002cf575050620001d1565b60008155018590620002bf565b9091508190620002b4565b634e487b7160e01b600052602260045260246000fd5b90607f1690620001be565b634e487b7160e01b600052604160045260246000fd5b8f5162461bcd60e51b8152600481018d9052601a60248201527f43726561746f72206d7573742066756e64206578706f737572650000000000006044820152606490fd5b8f5162461bcd60e51b8152600481018d9052600f60248201526e092dcecc2d8d2c840dad2dc5edac2f608b1b6044820152606490fd5b50868810156200014d565b8f5162461bcd60e51b8152600481018d9052601760248201527f446561646c696e65206d757374206265206675747572650000000000000000006044820152606490fd5b8f5162461bcd60e51b8152600481018d9052601460248201527f4578706f73757265206d757374206265203e20300000000000000000000000006044820152606490fd5b8f5162461bcd60e51b8152600481018d9052600f60248201526e24b73b30b634b21030b93134ba32b960891b6044820152606490fd5b508f5162461bcd60e51b8152600481018d9052601060248201526f496e76616c696420747265617375727960801b6044820152606490fd5b508f5162461bcd60e51b8152600481018d9052600f60248201526e24b73b30b634b21031b932b0ba37b960891b6044820152606490fd5b83830182018501519082018501528f93018e620000f4565b600080fd5b6040519190601f01601f191682016001600160401b038111838210176200030857604052565b51906001600160a01b0382168203620004e85756fe608060408181526004918236101561001657600080fd5b600092833560e01c918263027b43c0146110365750816302d05d3f1461100d57816303ee438c14610ec95781630695c46c14610ea257816309a0dfd114610c99578163216e283f14610c7a578163232877d014610c5b57816324a9d85314610c3d57816335c1d34914610bfc57816342e94c9014610bc25781634addc04c14610ba05781634bb278f314610a955781634f8cc292146109815781635aa68ac0146108bc57816360c926131461088f57816361d027b3146108665781636732e639146108475781636cbb721f146108215781637261a28a146107f6578163796b23bb146107d75781639925279a146107985781639e1ae2a014610779578163a9b947d81461075a578163b56b83531461073b578163c19d93fb1461070f578163ea8a1af014610698578163ed1ef4801461067c578163f09df1891461065d578163f240f7c3146104af578163f481d3be14610470578163fdcc3251146101b0575063fe25e00a1461018557600080fd5b346101ac57816003193601126101ac5760035490516001600160a01b039091168152602090f35b5080fd5b90508260031936011261046c5760ff60115416600681101561045957806101da6101eb9215611160565b82811415908161044d575b50611197565b600854421015610419576001546001600160a01b0390811633146103e057600c5434106103b1573415610379573384526012602052828420549161022f34846111d3565b92600d5484116103415761024534600a546111d3565b6009541061030b57156102b8575b505033835260126020528183205561026d34600a546111d3565b9081600a557f15e6e7ff8d528b5a9ca8864f3fc582093088bd002536ca760205790ea2586a088151913483528360208401523392a2600954146102ad5780f35b6102b56113ba565b80f35b60135490680100000000000000008210156102f857508060016102de920160135561108a565b819291549060031b9133831b921b19161790553880610253565b634e487b7160e01b865260419052602485fd5b845162461bcd60e51b8152602081840152601060248201526f45786365656473206578706f7375726560801b6044820152606490fd5b845162461bcd60e51b8152602081840152601260248201527120b137bb329036b0bc103832b9103ab9b2b960711b6044820152606490fd5b506020606492519162461bcd60e51b835282015260126024820152710416d6f756e74206d757374206265203e20360741b6044820152fd5b506020606492519162461bcd60e51b835282015260096024820152682132b637bb9036b4b760b91b6044820152fd5b506020606492519162461bcd60e51b8352820152601360248201527221b932b0ba37b91031b0b73737ba103537b4b760691b6044820152fd5b6020606492519162461bcd60e51b8352820152600f60248201526e119d5b991a5b99c8195e1c1a5c9959608a1b6044820152fd5b600591501415386101e5565b634e487b7160e01b845260218252602484fd5b8280fd5b8383346101ac57816003193601126101ac5760ff600f5416905191600382101561049c57602083838152f35b634e487b7160e01b815260218452602490fd5b839150346101ac57816003193601126101ac576001546001600160a01b0390811633148015610649575b6104e290611271565b6011549160ff8316600681101580610636578282141580610628575b61050790611197565b610615576002036105e35760105442116105b057600f54918260081c16331461056d575060ff60a81b1916600160a81b17600f5560ff1916600317601155337f695fbf2fe28b4fde5705122279ffc4160ebfc0f45e4d96f7e6699001be5062ef8280a280f35b606490602086519162461bcd60e51b8352820152601760248201527f50726f706f7365722063616e6e6f7420646973707574650000000000000000006044820152fd5b606490602086519162461bcd60e51b8352820152600d60248201526c15da5b991bddc818db1bdcd959609a1b6044820152fd5b606490602086519162461bcd60e51b8352820152600c60248201526b139bdd081c1c9bdc1bdcd95960a21b6044820152fd5b634e487b7160e01b855260218252602485fd5b5085905060058214156104fe565b634e487b7160e01b865260218352602486fd5b5033835260126020528383205415156104d9565b5050346101ac57816003193601126101ac57602090600a549051908152f35b5050346101ac57816003193601126101ac576020905160018152f35b833461070c578060031936011261070c5760ff6011541660068110156106f9576106d691926106c78215611160565b81141590816106ed5750611197565b6106de61124e565b6106e6611329565b6001815580f35b600591501415836101e5565b506021602492634e487b7160e01b835252fd5b80fd5b8383346101ac57816003193601126101ac5760ff60115416905191600682101561049c57602083838152f35b5050346101ac57816003193601126101ac576020906006549051908152f35b5050346101ac57816003193601126101ac57602090600d549051908152f35b5050346101ac57816003193601126101ac576020906009549051908152f35b833461070c578060031936011261070c5760ff6011541660068110156106f9576107c791926106c78215611160565b6107cf61124e565b6106e66111e0565b5050346101ac57816003193601126101ac576020906008549051908152f35b5050346101ac57816003193601126101ac5760209061081a600954600a54906110d7565b9051908152f35b5050346101ac57816003193601126101ac5760209061083e6110fa565b90519015158152f35b5050346101ac57816003193601126101ac57602090600b549051908152f35b5050346101ac57816003193601126101ac5760025490516001600160a01b039091168152602090f35b5050346101ac57816003193601126101ac57600f54905160089190911c6001600160a01b03168152602090f35b82843461070c578060031936011261070c579080519182906013549182855260208095018093601384527f66de8ffda797e3de9c05e8fc57b3bf0ec28a930d40b0d285d93c06501cf6a09090845b8181106109645750505081610920910382611052565b83519485948186019282875251809352850193925b82811061094457505050500390f35b83516001600160a01b031685528695509381019392810192600101610935565b82546001600160a01b03168452928801926001928301920161090a565b90503461046c57602036600319011261046c578035916003831015610a91576003546001600160a01b03163303610a605760ff601154166006811015610a4d5780836109d5921415908161044d5750611197565b6109dd61124e565b60ff601154166006811015610a4d57600303610a1b57836106e684600181148015610a11575b610a0c906112eb565b61158d565b5060028114610a03565b906020606492519162461bcd60e51b8352820152600c60248201526b139bdd08191a5cdc1d5d195960a21b6044820152fd5b634e487b7160e01b855260218352602485fd5b906020606492519162461bcd60e51b8352820152600b60248201526a2737ba1030b93134ba32b960a91b6044820152fd5b8380fd5b90503461046c578260031936011261046c5760ff601154166006811015610459578082610aca921415908161044d5750611197565b610ad261124e565b60ff60115416600681101561045957600203610b6c57601054421115610b3c57600f549160ff8360a81c16610b0e57836106e660ff851661158d565b906020606492519162461bcd60e51b83528201526008602482015267111a5cdc1d5d195960c21b6044820152fd5b6020606492519162461bcd60e51b8352820152600b60248201526a2bb4b73237bb9037b832b760a91b6044820152fd5b6020606492519162461bcd60e51b8352820152600f60248201526e4e6f742066696e616c697a61626c6560881b6044820152fd5b5050346101ac57816003193601126101ac5760209060ff600754169051908152f35b90503461046c57602036600319011261046c57356001600160a01b0381169081900361046c57828291602094526012845220549051908152f35b90503461046c57602036600319011261046c57359160135483101561070c5750610c2760209261108a565b905491519160018060a01b039160031b1c168152f35b90503461046c578260031936011261046c5760209250549051908152f35b5050346101ac57816003193601126101ac576020906005549051908152f35b5050346101ac57816003193601126101ac576020906010549051908152f35b9190503461046c57602036600319011261046c578135906003821015610a91576001546001600160a01b031633148015610e8e575b610cd790611271565b60ff60115416600681101580610e7b578482141580610e6d575b610cfa90611197565b610e5a5715610e08575b6011549260ff84166006811015610df557600103610dc65784600184148015610db9575b610d31906112eb565b610da65750600f80543360081b610100600160a81b03166001600160b01b031990911660ff851617179055600554600290610d6c90426111d3565b938460105560ff191617601155519182527fc4c4bff1bbd730f214a9910a0ced506484c88e68e46c0651e4e4c5c80b39f93660203393a380f35b634e487b7160e01b855260219052602484fd5b5085905060028414610d28565b6020606492519162461bcd60e51b8352820152600a602482015269139bdd081b1bd8dad95960b21b6044820152fd5b634e487b7160e01b865260218252602486fd5b6008544210610e2b57610e1e600a5415156112af565b610e266113ba565b610d04565b5162461bcd60e51b8152602081840152600a60248201526929ba34b6361037b832b760b11b6044820152606490fd5b634e487b7160e01b855260218452602485fd5b508590506005821415610cf1565b634e487b7160e01b865260218552602486fd5b503384526012602052808420541515610cce565b5050346101ac57816003193601126101ac5760209060ff600f5460a81c1690519015158152f35b82843461070c578060031936011261070c5781519080600e54600181811c918181168015611003575b6020988985108214610ff05750918391899593889586529081600014610fcf5750600114610f73575b5050610f2d9250959392950382611052565b82519382859384528251928382860152825b848110610f5d57505050828201840152601f01601f19168101030190f35b8181018301518882018801528795508201610f3f565b600e86527fbb7b4a454dc3493923482f07822329ed19e8244eff582cc204f8554c3620c3fd9492508591905b818310610fb7575088945050820101610f2d88610f1b565b85548884018501529485019487945091830191610f9f565b915050610f2d94925060ff191682840152151560051b820101869288610f1b565b634e487b7160e01b875260229052602486fd5b92607f1692610ef2565b5050346101ac57816003193601126101ac5760015490516001600160a01b039091168152602090f35b8490346101ac57816003193601126101ac57602090600c548152f35b90601f8019910116810190811067ffffffffffffffff82111761107457604052565b634e487b7160e01b600052604160045260246000fd5b6013548110156110c15760136000527f66de8ffda797e3de9c05e8fc57b3bf0ec28a930d40b0d285d93c06501cf6a0900190600090565b634e487b7160e01b600052603260045260246000fd5b919082039182116110e457565b634e487b7160e01b600052601160045260246000fd5b60ff60115416600681101561114a5761114557600a54600954811461113f576008544210159081611135575b5061113057600090565b600190565b9050151538611126565b50600190565b600090565b634e487b7160e01b600052602160045260246000fd5b1561116757565b60405162461bcd60e51b81526020600482015260086024820152672737ba1037b832b760c11b6044820152606490fd5b1561119e57565b60405162461bcd60e51b815260206004820152600d60248201526c115cd8dc9bddc818db1bdcd959609a1b6044820152606490fd5b919082018092116110e457565b600a5460095481148015611242575b1561120b5715611203576112016113ba565b565b6112016114c9565b60405162461bcd60e51b815260206004820152600f60248201526e10d85b9b9bdd081b1bd8dac81e595d608a1b6044820152606490fd5b506008544210156111ef565b60026000541461125f576002600055565b604051633ee5aeb560e01b8152600490fd5b1561127857565b60405162461bcd60e51b815260206004820152600f60248201526e139bdd081c185c9d1a58da5c185b9d608a1b6044820152606490fd5b156112b657565b60405162461bcd60e51b815260206004820152600d60248201526c27379037b83837b9b4ba34b7b760991b6044820152606490fd5b156112f257565b60405162461bcd60e51b815260206004820152600f60248201526e496e76616c6964206f7574636f6d6560881b6044820152606490fd5b60085442111561138057600a54156112035760405162461bcd60e51b815260206004820152601b60248201527f416374697665206f70706f736974696f6e206d757374206c6f636b00000000006044820152606490fd5b60405162461bcd60e51b8152602060048201526012602482015271233ab73234b7339039ba34b6361037b832b760711b6044820152606490fd5b60ff60115416600681101561114a5761148d57600a546113db8115156112af565b60006009548092106000146114635750507fc5d59e7b090c03cf8ea685500f0ed3f44d0a55e361f0e09734adb9965bc46f0a60095461141d600a5480926110d7565b90600b556114358160018060a01b036001541661181e565b6011805460ff19166001179055600b54600a54604080519283526020830191909152810191909152606090a1565b7fc5d59e7b090c03cf8ea685500f0ed3f44d0a55e361f0e09734adb9965bc46f0a91600b55611435565b60405162461bcd60e51b8152602060048201526014602482015273105b1c9958591e481d1c985b9cda5d1a5bdb995960621b6044820152606490fd5b60115460ff8116600681101561114a576114e39015611160565b600a546115415760ff19166005176011556001547fa761582a460180d55522f9f5fdc076390a1f48a7a62a8afbd45c1bb797948edb9060409047906115329082906001600160a01b031661181e565b815190815260006020820152a1565b60405162461bcd60e51b81526020600482015260116024820152704f70706f736974696f6e2065786973747360781b6044820152606490fd5b818102929181159184041417156110e457565b6003808210158061114a5760019081841490818015611811575b156117d457600b5492831561178f57600a549485156115c681156112af565b6004906011928260ff198554161784556115e089896111d3565b966115fa6127106115f286548b61157a565b0480996110d7565b9688611773575b61175e571561166f57505091547f9a2087478f16b801ecd568a6676f5db758bda2a01b954b2c754257d11eb3770b96959461166a9490935061164d9250906001600160a01b031661181e565b604051938493846040919493926060820195825260208201520152565b0390a2565b8460009693949596905b6116b1575b505050505050509061166a7f9a2087478f16b801ecd568a6676f5db758bda2a01b954b2c754257d11eb3770b939261164d565b601354811015611759576116c48161108a565b60018060a01b03915490841b1c16806000528360126020908082526040918260002054801561174e576116f7908a61157a565b9361173a578e9285949260009261171597845252812055049061181e565b600019811461172657860186611679565b8585634e487b7160e01b6000525260246000fd5b5088634e487b7160e01b6000525260246000fd5b505050505050611715565b61167e565b602184634e487b7160e01b6000525260246000fd5b60025461178a908a906001600160a01b031661181e565b611601565b60405162461bcd60e51b815260206004820152601760248201527f4e6f206c6f636b65642063726561746f72207374616b650000000000000000006044820152606490fd5b60405162461bcd60e51b8152602060048201526015602482015274496e76616c69642066696e616c206f7574636f6d6560581b6044820152606490fd5b50506000600285146115a7565b81156118cb57600080808094819460018060a01b03165af1903d156118c5573d9067ffffffffffffffff82116118b15760405191611866601f8201601f191660200184611052565b825260203d92013e5b1561187657565b60405162461bcd60e51b8152602060048201526013602482015272115512081d1c985b9cd9995c8819985a5b1959606a1b6044820152606490fd5b634e487b7160e01b81526041600452602490fd5b5061186f565b505056fea2646970667358221220941a0d709ea73a3e308973fa5eed6b9626ff9318353e18e63b552c9fdebd130664736f6c634300081400336080601f6200115c38819003918201601f1916830191906001600160401b0383118484101762000367578160e0928592604095865283398101031262000362576200004a826200037d565b9160206200005a8183016200037d565b918381015160608201519162000073608082016200037d565b9060c06200008460a083016200037d565b910151600160005560646008819055986001600160a01b039081169791959188156200032e578116938415620002fa57848914620002c85781169283156200029257169384156200025d578015620002265742821115620001e3578515620001a0578034036200016a577f2da466a7b24304f47e87fa2e1e5a81b9831ce54fec19055ce277ca2f39ba42c49798995060018060a01b03199389856001541617600155846002541617600255600655600755816003541617600355600454161760045560095560ff60a81b19600c5416600c558351348152a251610dc99081620003938239f35b885162461bcd60e51b815260048101889052601060248201526f14185c9d1e50481b5d5cdd08199d5b9960821b60448201528a90fd5b885162461bcd60e51b815260048101889052601660248201527f496e76616c696420646973707574652077696e646f770000000000000000000060448201528a90fd5b885162461bcd60e51b815260048101889052601860248201527f496e76616c69642066756e64696e6720646561646c696e65000000000000000060448201528a90fd5b885162461bcd60e51b815260048101889052601160248201527005374616b65206d757374206265203e203607c1b60448201528a90fd5b885162461bcd60e51b815260048101889052600f60248201526e24b73b30b634b21030b93134ba32b960891b60448201528a90fd5b895162461bcd60e51b815260048101899052601060248201526f496e76616c696420747265617375727960801b60448201528b90fd5b895162461bcd60e51b815260048101899052600c60248201526b53616d65207061727469657360a01b60448201528b90fd5b895162461bcd60e51b815260048101899052600e60248201526d24b73b30b634b2103830b93a3ca160911b60448201528b90fd5b895162461bcd60e51b815260048101899052600e60248201526d496e76616c69642070617274794160901b60448201528b90fd5b600080fd5b634e487b7160e01b600052604160045260246000fd5b51906001600160a01b0382168203620003625756fe6080604081815260048036101561001557600080fd5b600092833560e01c908163012056ad14610a51575080630695c46c14610a2a57806310e1d8ca14610a015780631263d7d2146108d1578063216e283f146108b2578063232877d01461089357806324a9d85314610874578063290401131461084b5780633d08d0e6146106b55780634bb278f31461056257806360c7dc471461054357806360c926131461051a57806361d027b3146104f1578063796b23bb146104d257806379e2b513146104a9578063c19d93fb14610466578063d0e30db0146102f1578063dfbf53ae146102c4578063f240f7c3146101295763fe25e00a146100ff57600080fd5b346101255782600319360112610125575490516001600160a01b03909116815260209150f35b8280fd5b50346101255782600319360112610125576001546001600160a01b0392908316331480156102b7575b61015b90610bfd565b600c549260ff8460a81c166006811015806102a4578482141580610296575b61018390610b85565b6102835760020361025157600a54421161021e57831633146101db57505061ffff60a01b191661030160a01b17600c55337f695fbf2fe28b4fde5705122279ffc4160ebfc0f45e4d96f7e6699001be5062ef8280a280f35b906020606492519162461bcd60e51b8352820152601760248201527f50726f706f7365722063616e6e6f7420646973707574650000000000000000006044820152fd5b815162461bcd60e51b8152602081850152600d60248201526c15da5b991bddc818db1bdcd959609a1b6044820152606490fd5b815162461bcd60e51b8152602081850152600c60248201526b139bdd081c1c9bdc1bdcd95960a21b6044820152606490fd5b634e487b7160e01b865260218452602486fd5b50869050600582141561017a565b634e487b7160e01b875260218552602487fd5b5060025483163314610152565b5050346102ed57816003193601126102ed5760055490516001600160a01b039091168152602090f35b5080fd5b508260031936011261012557600c549060ff8260a81c16600681101580610453578282141580610445575b61032590610b85565b6002546001600160a01b0316330361041457610401576103459015610bc1565b60075442116103cc576006543403610397575060ff60a81b1916600160a81b17600c555134815233907f2da466a7b24304f47e87fa2e1e5a81b9831ce54fec19055ce277ca2f39ba42c490602090a280f35b606490602084519162461bcd60e51b8352820152600f60248201526e496e636f7272656374207374616b6560881b6044820152fd5b606490602084519162461bcd60e51b8352820152600f60248201526e119d5b991a5b99c8195e1c1a5c9959608a1b6044820152fd5b634e487b7160e01b855260218252602485fd5b845162461bcd60e51b8152602081850152600b60248201526a27b7363c903830b93a3ca160a91b6044820152606490fd5b50859050600582141561031c565b634e487b7160e01b865260218352602486fd5b509190346102ed57816003193601126102ed5760ff600c5460a81c16905191600682101561049657602083838152f35b634e487b7160e01b815260218452602490fd5b5050346102ed57816003193601126102ed57600b5490516001600160a01b039091168152602090f35b5050346102ed57816003193601126102ed576020906007549051908152f35b5050346102ed57816003193601126102ed5760035490516001600160a01b039091168152602090f35b5050346102ed57816003193601126102ed57600c5490516001600160a01b039091168152602090f35b5050346102ed57816003193601126102ed576020906006549051908152f35b50903461012557826003193601126101255760ff600c5460a81c1660068110156106a257808361059b9214159081610696575b50610b85565b6105a3610c78565b600c5460ff8160a81c1660068110156106835760020361064e5760a01c60ff1661062057600a544211156105ef57600b5483906105e8906001600160a01b0316610c9b565b6001815580f35b906020606492519162461bcd60e51b8352820152600b60248201526a2bb4b73237bb9037b832b760a91b6044820152fd5b906020606492519162461bcd60e51b83528201526008602482015267111a5cdc1d5d195960c21b6044820152fd5b815162461bcd60e51b8152602081850152600f60248201526e4e6f742066696e616c697a61626c6560881b6044820152606490fd5b634e487b7160e01b855260218452602485fd5b60059150141538610595565b634e487b7160e01b845260218352602484fd5b509034610125576020366003190112610125576001600160a01b0382358181169290839003610847578160015416803314801561083a575b6106f690610bfd565b600c549060ff8260a81c16600681101580610827578782141580610819575b61071e90610b85565b610806576001036107d657841480156107c9575b61073b90610c3b565b836bffffffffffffffffffffffff60a01b600b541617600b556009544201948542116107b65750600a859055600161ff0160a01b0319163360ff60a81b191617600160a91b17600c819055905193845216917f91858fc926d2a983cc74a4f6f23762cdb4ad201847791417de5f5a62d049eeff90602090a380f35b634e487b7160e01b875260119052602486fd5b5060025483168414610732565b825162461bcd60e51b8152602081880152600a602482015269139bdd08199d5b99195960b21b6044820152606490fd5b634e487b7160e01b885260218752602488fd5b508890506005821415610715565b634e487b7160e01b895260218852602489fd5b50600254831633146106ed565b8480fd5b5050346102ed57816003193601126102ed5760025490516001600160a01b039091168152602090f35b5050346102ed57816003193601126102ed576020906008549051908152f35b5050346102ed57816003193601126102ed576020906009549051908152f35b5050346102ed57816003193601126102ed57602090600a549051908152f35b503461012557826003193601126101255760ff600c5460a81c1660068110156109ee57808261090892141590816106965750610b85565b610910610c78565b600c549060ff8260a81c1660068110156104015761092e9015610bc1565b6007544211156109bc575060ff60a81b1916600560a81b17600c5560015447906001600160a01b03908490819081908190869086168282156109b3575bf1156109a7577fd7dee2702d63ad89917b6a4da9981c90c4d24f8c2bdfd64c604ecae57d8d065191602091600154169351908152a26001815580f35b505051903d90823e3d90fd5b506108fc61096b565b606490602084519162461bcd60e51b8352820152600c60248201526b233ab73234b7339037b832b760a11b6044820152fd5b634e487b7160e01b845260218252602484fd5b5050346102ed57816003193601126102ed5760015490516001600160a01b039091168152602090f35b5050346102ed57816003193601126102ed5760209060ff600c5460a01c1690519015158152f35b9050839134610125576020366003190112610125578035916001600160a01b039182841691828503610b8157838254163303610b53575060ff600c5460a81c166006811015610b34578082610aae9214159081610b475750610b85565b610ab6610c78565b60ff600c5460a81c166006811015610b3457600303610b02575081610aef916105e89493600154168114918215610af4575b5050610c3b565b610c9b565b600254161490508580610ae8565b606490602087519162461bcd60e51b8352820152600c60248201526b139bdd08191a5cdc1d5d195960a21b6044820152fd5b634e487b7160e01b865260218252602486fd5b60059150141588610595565b602060649262461bcd60e51b8352820152600b60248201526a2737ba1030b93134ba32b960a91b6044820152fd5b8580fd5b15610b8c57565b60405162461bcd60e51b815260206004820152600d60248201526c115cd8dc9bddc818db1bdcd959609a1b6044820152606490fd5b15610bc857565b60405162461bcd60e51b815260206004820152600d60248201526c496e76616c696420737461746560981b6044820152606490fd5b15610c0457565b60405162461bcd60e51b815260206004820152600f60248201526e139bdd081c185c9d1a58da5c185b9d608a1b6044820152606490fd5b15610c4257565b60405162461bcd60e51b815260206004820152600e60248201526d24b73b30b634b2103bb4b73732b960911b6044820152606490fd5b600260005414610c89576002600055565b604051633ee5aeb560e01b8152600490fd5b600c805460ff60a81b1916600160aa1b179055600580546001600160a01b0319166001600160a01b0392831690811790915560085490919047908082029082158383049091141715610d7d5761271090049081810392818411610d7d576000808085819460035416828215610d74575bf115610d5e5782848360009314610d6a575b600092839283928392f115610d5e577f502ff417105b720868ddf6004251e88263577903b54ae0915462ab5050eb9c149160409182519182526020820152a2565b6040513d6000823e3d90fd5b6108fc9250610d1d565b506108fc610d0b565b634e487b7160e01b600052601160045260246000fdfea2646970667358221220762a3dd2978b1fc685d0405f4888969fc4478f3e6adda71fed69622864b6615064736f6c63430008140033a2646970667358221220e804e990c1f592eb0cfc9a06c0472af5f5a3b0ea33772b8c86eac3282bfa4edc64736f6c63430008140033",
  "linkReferences": {},
  "deployedLinkReferences": {}
}