{
  "_format": "hh-sol-artifact-1",
  "contractName": "PreDEXFactory",
  "sourceName": "contracts/PreDEXFactory.sol",
  "abi": [
    {
      "inputs": [
        {
          "internalType": "address",
          "name": "_treasury",
          "type": "address"
        },
        {
          "internalType": "address",
          "name": "_arbiter",
          "type": "address"
        },
        {
          "internalType": "uint256",
          "name": "_disputeWindowSeconds",
          "type": "uint256"
        }
      ],
      "stateMutability": "nonpayable",
      "type": "constructor"
    },
    {
      "anonymous": false,
      "inputs": [
        {
          "indexed": true,
          "internalType": "address",
          "name": "escrow",
          "type": "address"
        },
        {
          "indexed": true,
          "internalType": "address",
          "name": "partyA",
          "type": "address"
        },
        {
          "indexed": true,
          "internalType": "address",
          "name": "partyB",
          "type": "address"
        },
        {
          "indexed": false,
          "internalType": "uint256",
          "name": "stakeAmount",
          "type": "uint256"
        },
        {
          "indexed": false,
          "internalType": "uint256",
          "name": "fundingDeadline",
          "type": "uint256"
        }
      ],
      "name": "EscrowCreated",
      "type": "event"
    },
    {
      "anonymous": false,
      "inputs": [
        {
          "indexed": true,
          "internalType": "address",
          "name": "escrow",
          "type": "address"
        },
        {
          "indexed": true,
          "internalType": "address",
          "name": "creator",
          "type": "address"
        },
        {
          "indexed": false,
          "internalType": "uint256",
          "name": "maxExposure",
          "type": "uint256"
        },
        {
          "indexed": false,
          "internalType": "uint256",
          "name": "minPerParticipant",
          "type": "uint256"
        },
        {
          "indexed": false,
          "internalType": "uint256",
          "name": "maxPerParticipant",
          "type": "uint256"
        },
        {
          "indexed": false,
          "internalType": "uint256",
          "name": "line",
          "type": "uint256"
        },
        {
          "indexed": false,
          "internalType": "uint8",
          "name": "declaredDirection",
          "type": "uint8"
        },
        {
          "indexed": false,
          "internalType": "uint256",
          "name": "fundingDeadline",
          "type": "uint256"
        },
        {
          "indexed": false,
          "internalType": "string",
          "name": "metadataURI",
          "type": "string"
        }
      ],
      "name": "OpenBetCreated",
      "type": "event"
    },
    {
      "inputs": [
        {
          "internalType": "uint256",
          "name": "",
          "type": "uint256"
        }
      ],
      "name": "allEscrows",
      "outputs": [
        {
          "internalType": "address",
          "name": "",
          "type": "address"
        }
      ],
      "stateMutability": "view",
      "type": "function"
    },
    {
      "inputs": [],
      "name": "arbiter",
      "outputs": [
        {
          "internalType": "address",
          "name": "",
          "type": "address"
        }
      ],
      "stateMutability": "view",
      "type": "function"
    },
    {
      "inputs": [
        {
          "internalType": "address",
          "name": "_partyB",
          "type": "address"
        },
        {
          "internalType": "uint256",
          "name": "_stakeAmount",
          "type": "uint256"
        },
        {
          "internalType": "uint256",
          "name": "_fundingDeadline",
          "type": "uint256"
        }
      ],
      "name": "createEscrow",
      "outputs": [
        {
          "internalType": "address",
          "name": "",
          "type": "address"
        }
      ],
      "stateMutability": "payable",
      "type": "function"
    },
    {
      "inputs": [
        {
          "internalType": "uint256",
          "name": "_maxExposure",
          "type": "uint256"
        },
        {
          "internalType": "uint256",
          "name": "_minPerParticipant",
          "type": "uint256"
        },
        {
          "internalType": "uint256",
          "name": "_maxPerParticipant",
          "type": "uint256"
        },
        {
          "internalType": "uint256",
          "name": "_line",
          "type": "uint256"
        },
        {
          "internalType": "uint8",
          "name": "_declaredDirection",
          "type": "uint8"
        },
        {
          "internalType": "uint256",
          "name": "_fundingDeadline",
          "type": "uint256"
        },
        {
          "internalType": "string",
          "name": "_metadataURI",
          "type": "string"
        }
      ],
      "name": "createOpenBet",
      "outputs": [
        {
          "internalType": "address",
          "name": "",
          "type": "address"
        }
      ],
      "stateMutability": "payable",
      "type": "function"
    },
    {
      "inputs": [],
      "name": "disputeWindowSeconds",
      "outputs": [
        {
          "internalType": "uint256",
          "name": "",
          "type": "uint256"
        }
      ],
      "stateMutability": "view",
      "type": "function"
    },
    {
      "inputs": [],
      "name": "feeBps",
      "outputs": [
        {
          "internalType": "uint256",
          "name": "",
          "type": "uint256"
        }
      ],
      "stateMutability": "view",
      "type": "function"
    },
    {
      "inputs": [],
      "name": "getEscrowCount",
      "outputs": [
        {
          "internalType": "uint256",
          "name": "",
          "type": "uint256"
        }
      ],
      "stateMutability": "view",
      "type": "function"
    },
    {
      "inputs": [],
      "name": "getEscrows",
      "outputs": [
        {
          "internalType": "address[]",
          "name": "",
          "type": "address[]"
        }
      ],
      "stateMutability": "view",
      "type": "function"
    },
    {
      "inputs": [],
      "name": "treasury",
      "outputs": [
        {
          "internalType": "address",
          "name": "",
          "type": "address"
        }
      ],
      "stateMutability": "view",
      "type": "function"
    }
  ],
  "bytecode": "0x60803461015d57601f6136d738819003918201601f191683019291906001600160401b0384118385101761016257816060928492604096875283398101031261015d5761004b81610178565b908261005960208301610178565b9101516064600355916001600160a01b0390811691821561012657169081156100f05782156100ac5760018060a01b03199081600054161760005560015416176001556002555161354a908161018d8239f35b835162461bcd60e51b815260206004820152601660248201527f496e76616c696420646973707574652077696e646f77000000000000000000006044820152606490fd5b835162461bcd60e51b815260206004820152600f60248201526e24b73b30b634b21030b93134ba32b960891b6044820152606490fd5b845162461bcd60e51b815260206004820152601060248201526f496e76616c696420747265617375727960801b6044820152606490fd5b600080fd5b634e487b7160e01b600052604160045260246000fd5b51906001600160a01b038216820361015d5756fe60806040818152600491823610156200001757600080fd5b60009260e0908435821c92836316b15135146200070e575082631d3afee614620006b0578263232877d0146200068e57826324a9d853146200066c57826361d027b314620006415782636afcb6da146200054957826381b033a414620002ad578263e2ecb31114620000c257505063fe25e00a146200009557600080fd5b34620000be5781600319360112620000be5760015490516001600160a01b039091168152602090f35b5080fd5b909291506060366003190112620002a95780356001600160a01b038181169291839003620002a5576024359160443595846200025a575b831562000223576200010d4288116200072b565b833403620001e0578288541691836001541660025490885194610e5e8087019487861067ffffffffffffffff871117620001cd5750908694939291620026b78639338452896020850152888b8501528b6060850152608084015260a083015260c082015203019034f08015620001c3576020965016936200018e8562000778565b835191825285820152837f8de9648925318a4011d9b77a169a4debb04642dff004df3972f3a88a54ca0155843393a451908152f35b84513d88823e3d90fd5b634e487b7160e01b8e526041905260248dfd5b855162461bcd60e51b8152602081840152601c60248201527f5374616b65206d7573742062652073656e7420627920706172747941000000006044820152606490fd5b855162461bcd60e51b8152602081840152601160248201527005374616b65206d757374206265203e203607c1b6044820152606490fd5b843303620000f957855162461bcd60e51b8152602081840152601960248201527f43616e6e6f7420776167657220616761696e73742073656c66000000000000006044820152606490fd5b8580fd5b8380fd5b92915080600319360112620002a95760843560ff8116809103620005455760c4359067ffffffffffffffff8083116200054157366023840112156200054157828601358181116200053d576024963688838701011162000539578035938415620005005760a43591620003224284116200072b565b89359a8b151580620004f3575b15620004bf578634036200047d5780546001546003546002548d51611e868082019b6001600160a01b039892969395891693891692908d11878e1017620004645750620008318639338b5260208b01528d8a0152606089015260808801528760a08801528c60c088015280620003d66044359a8b8d8b01526064359e8f6101008c0152876101208c0152886101408c015261018091826101608d0152019901888a6200080f565b039034f09081156200045957509260209b95927fccfe0e2356c78318aa2ed69d3b31a1dd425c522425c12a6c8f5310665f25cf3d9795926200045095169b8c99620004218b62000778565b8c5198899889528f8901528c8801526060870152608086015260a08501528760c085015233978401916200080f565b0390a351908152f35b8a51903d90823e3d90fd5b634e487b7160e01b885260419052508f96505050505050fd5b895162461bcd60e51b8152602081840152601a818d01527f43726561746f72206d7573742066756e64206578706f737572650000000000006044820152606490fd5b895162461bcd60e51b8152602081840152600f818d01526e092dcecc2d8d2c840dad2dc5edac2f608b1b6044820152606490fd5b508b60443510156200032f565b875162461bcd60e51b81526020818401526014818b01527304578706f73757265206d757374206265203e20360641b6044820152606490fd5b8880fd5b8780fd5b8680fd5b8480fd5b8385346200063e57806003193601126200063e5781518091845493848352602080930180958784527f8a35acfbc15ff81a39ae7d344fd709f28e8600b4aa8c65c6b64bfe7fe36bd19b90845b86828210620006205750505050849003601f01601f191684019567ffffffffffffffff8711858810176200060d575085815282865292518583018190528594938501939290915b828110620005ec57505050500390f35b83516001600160a01b031685528695509381019392810192600101620005dc565b634e487b7160e01b835260419052602482fd5b83546001600160a01b03168552909301926001928301920162000595565b80fd5b50505034620000be5781600319360112620000be57905490516001600160a01b039091168152602090f35b50505034620000be5781600319360112620000be576020906003549051908152f35b50505034620000be5781600319360112620000be576020906002549051908152f35b915050346200070a5760203660031901126200070a578035908054821015620002a9576020935260018060a01b03907f8a35acfbc15ff81a39ae7d344fd709f28e8600b4aa8c65c6b64bfe7fe36bd19b0154169051908152f35b8280fd5b8591346200070a57826003193601126200070a5760209250548152f35b156200073357565b60405162461bcd60e51b815260206004820152601760248201527f446561646c696e65206d757374206265206675747572650000000000000000006044820152606490fd5b60045468010000000000000000811015620007f9576001810180600455811015620007e35760046000527f8a35acfbc15ff81a39ae7d344fd709f28e8600b4aa8c65c6b64bfe7fe36bd19b0180546001600160a01b0319166001600160a01b03909216919091179055565b634e487b7160e01b600052603260045260246000fd5b634e487b7160e01b600052604160045260246000fd5b908060209392818452848401376000828201840152601f01601f191601019056fe60406080815262001e86803803908162000019816200050d565b9182396101808183810103126200050857620000358162000533565b9060206200004581830162000533565b936200005386840162000533565b6060840151608085015160a086015160c08701519060e088015192610100890151946101208a01519b60ff8d16809d0362000508576101408b0151976101608c01519960018060401b039c8d8c116200050857818101601f8d83010112156200050857808c01519b8e8d1162000328578d8d93620000da82601f19601f880116016200050d565b9e8f528301908483850101011162000508578d919060008e5b858210620004f057915050600093915001015260019c8d7f9b779b17422d0df92223018b32b4d1fa46e071723d6817e2486d003becc55f005560018060a01b03809116928315620004b95781169182156200048157169182156200044b5785156200040757428a1115620003c35786151580620003b8575b1562000382578534036200033e57908d9160018060a01b03199283918260005416176000555416178d55600254161760025560035560045580600855600a55600b55600c5560055560ff199586600654161760065560075580519283116200032857600d548481811c911680156200031d575b838210146200030757601f8111620002b8575b5081601f84116001146200024b57509282939183926000946200023f575b50501b916000199060031b1c191617600d555b8060105416601055600e5416600e555161193d9081620005498239f35b0151925038806200020f565b919083601f198116600d60005284600020946000905b888383106200029d575050501062000283575b505050811b01600d5562000222565b015160001960f88460031b161c1916905538808062000274565b85870151885590960195948501948793509081019062000261565b600d60005282600020601f850160051c810191848610620002fc575b601f0160051c019085905b828110620002ef575050620001f1565b60008155018590620002df565b9091508190620002d4565b634e487b7160e01b600052602260045260246000fd5b90607f1690620001de565b634e487b7160e01b600052604160045260246000fd5b8f5162461bcd60e51b8152600481018d9052601a60248201527f43726561746f72206d7573742066756e64206578706f737572650000000000006044820152606490fd5b8f5162461bcd60e51b8152600481018d9052600f60248201526e092dcecc2d8d2c840dad2dc5edac2f608b1b6044820152606490fd5b50868810156200016b565b8f5162461bcd60e51b8152600481018d9052601760248201527f446561646c696e65206d757374206265206675747572650000000000000000006044820152606490fd5b8f5162461bcd60e51b8152600481018d9052601460248201527f4578706f73757265206d757374206265203e20300000000000000000000000006044820152606490fd5b8f5162461bcd60e51b8152600481018d9052600f60248201526e24b73b30b634b21030b93134ba32b960891b6044820152606490fd5b508f5162461bcd60e51b8152600481018d9052601060248201526f496e76616c696420747265617375727960801b6044820152606490fd5b508f5162461bcd60e51b8152600481018d9052600f60248201526e24b73b30b634b21031b932b0ba37b960891b6044820152606490fd5b83830182018501519082018501528f93018e620000f3565b600080fd5b6040519190601f01601f191682016001600160401b038111838210176200032857604052565b51906001600160a01b0382168203620005085756fe608060408181526004918236101561001657600080fd5b600092833560e01c918263027b43c01461104f5750816302d05d3f1461102757816303ee438c14610ee35781630695c46c14610ebc57816309a0dfd114610cb7578163216e283f14610c98578163232877d014610c7a57816324a9d85314610c5b57816335c1d34914610c1a57816342e94c9014610be05781634addc04c14610bbe5781634bb278f314610ab35781634f8cc2921461099f5781635aa68ac0146108da57816360c92613146108ad57816361d027b3146108845781636732e639146108655781636cbb721f1461083f5781637261a28a14610814578163796b23bb146107f55781639925279a146107b65781639e1ae2a014610797578163a9b947d814610778578163b56b835314610759578163c19d93fb1461072d578163ea8a1af014610696578163ed1ef4801461067a578163f09df1891461065b578163f240f7c3146104ae578163f481d3be1461046f578163fdcc3251146101b0575063fe25e00a1461018557600080fd5b346101ac57816003193601126101ac5760025490516001600160a01b039091168152602090f35b5080fd5b90508260031936011261046b5760ff60105416600681101561045857806101da6101eb9215611179565b82811415908161044c575b506111b0565b6007544210156104185782546001600160a01b0390811633146103df57600b5434106103b0573415610378573384526011602052828420549161022e34846111ec565b92600c54841161034057610244346009546111ec565b6008541061030a57156102b7575b505033835260116020528183205561026c346009546111ec565b90816009557f15e6e7ff8d528b5a9ca8864f3fc582093088bd002536ca760205790ea2586a088151913483528360208401523392a2600854146102ac5780f35b6102b46113f2565b80f35b60125490680100000000000000008210156102f757508060016102dd92016012556110a3565b819291549060031b9133831b921b19161790553880610252565b634e487b7160e01b865260419052602485fd5b845162461bcd60e51b8152602081840152601060248201526f45786365656473206578706f7375726560801b6044820152606490fd5b845162461bcd60e51b8152602081840152601260248201527120b137bb329036b0bc103832b9103ab9b2b960711b6044820152606490fd5b506020606492519162461bcd60e51b835282015260126024820152710416d6f756e74206d757374206265203e20360741b6044820152fd5b506020606492519162461bcd60e51b835282015260096024820152682132b637bb9036b4b760b91b6044820152fd5b506020606492519162461bcd60e51b8352820152601360248201527221b932b0ba37b91031b0b73737ba103537b4b760691b6044820152fd5b6020606492519162461bcd60e51b8352820152600f60248201526e119d5b991a5b99c8195e1c1a5c9959608a1b6044820152fd5b600591501415386101e5565b634e487b7160e01b845260218252602484fd5b8280fd5b8383346101ac57816003193601126101ac5760ff600e5416905191600382101561049b57602083838152f35b634e487b7160e01b815260218452602490fd5b839150346101ac57816003193601126101ac5781546001600160a01b0390811633148015610647575b6104e0906112a9565b6010549160ff8316600681101580610634578282141580610626575b610505906111b0565b610613576002036105e157600f5442116105ae57600e54918260081c16331461056b575060ff60a81b1916600160a81b17600e5560ff1916600317601055337f695fbf2fe28b4fde5705122279ffc4160ebfc0f45e4d96f7e6699001be5062ef8280a280f35b606490602086519162461bcd60e51b8352820152601760248201527f50726f706f7365722063616e6e6f7420646973707574650000000000000000006044820152fd5b606490602086519162461bcd60e51b8352820152600d60248201526c15da5b991bddc818db1bdcd959609a1b6044820152fd5b606490602086519162461bcd60e51b8352820152600c60248201526b139bdd081c1c9bdc1bdcd95960a21b6044820152fd5b634e487b7160e01b855260218252602485fd5b5085905060058214156104fc565b634e487b7160e01b865260218352602486fd5b5033835260116020528383205415156104d7565b5050346101ac57816003193601126101ac576020906009549051908152f35b5050346101ac57816003193601126101ac576020905160018152f35b833461072a578060031936011261072a5760ff601054166006811015610717576106d491926106c58215611179565b811415908161070b57506111b0565b6106dc611267565b6106e4611361565b60017f9b779b17422d0df92223018b32b4d1fa46e071723d6817e2486d003becc55f005580f35b600591501415836101e5565b506021602492634e487b7160e01b835252fd5b80fd5b8383346101ac57816003193601126101ac5760ff60105416905191600682101561049b57602083838152f35b5050346101ac57816003193601126101ac576020906005549051908152f35b5050346101ac57816003193601126101ac57602090600c549051908152f35b5050346101ac57816003193601126101ac576020906008549051908152f35b833461072a578060031936011261072a5760ff601054166006811015610717576107e591926106c58215611179565b6107ed611267565b6106e46111f9565b5050346101ac57816003193601126101ac576020906007549051908152f35b5050346101ac57816003193601126101ac57602090610838600854600954906110f0565b9051908152f35b5050346101ac57816003193601126101ac5760209061085c611113565b90519015158152f35b5050346101ac57816003193601126101ac57602090600a549051908152f35b5050346101ac57816003193601126101ac5760015490516001600160a01b039091168152602090f35b5050346101ac57816003193601126101ac57600e54905160089190911c6001600160a01b03168152602090f35b82843461072a578060031936011261072a579080519182906012549182855260208095018093601284527fbb8a6a4669ba250d26cd7a459eca9d215f8307e33aebe50379bc5a3617ec344490845b818110610982575050508161093e91038261106b565b83519485948186019282875251809352850193925b82811061096257505050500390f35b83516001600160a01b031685528695509381019392810192600101610953565b82546001600160a01b031684529288019260019283019201610928565b90503461046b57602036600319011261046b578035916003831015610aaf576002546001600160a01b03163303610a7e5760ff601054166006811015610a6b5780836109f3921415908161044c57506111b0565b6109fb611267565b60ff601054166006811015610a6b57600303610a3957836106e484600181148015610a2f575b610a2a90611323565b6115c5565b5060028114610a21565b906020606492519162461bcd60e51b8352820152600c60248201526b139bdd08191a5cdc1d5d195960a21b6044820152fd5b634e487b7160e01b855260218352602485fd5b906020606492519162461bcd60e51b8352820152600b60248201526a2737ba1030b93134ba32b960a91b6044820152fd5b8380fd5b90503461046b578260031936011261046b5760ff601054166006811015610458578082610ae8921415908161044c57506111b0565b610af0611267565b60ff60105416600681101561045857600203610b8a57600f54421115610b5a57600e549160ff8360a81c16610b2c57836106e460ff85166115c5565b906020606492519162461bcd60e51b83528201526008602482015267111a5cdc1d5d195960c21b6044820152fd5b6020606492519162461bcd60e51b8352820152600b60248201526a2bb4b73237bb9037b832b760a91b6044820152fd5b6020606492519162461bcd60e51b8352820152600f60248201526e4e6f742066696e616c697a61626c6560881b6044820152fd5b5050346101ac57816003193601126101ac5760209060ff600654169051908152f35b90503461046b57602036600319011261046b57356001600160a01b0381169081900361046b57828291602094526011845220549051908152f35b90503461046b57602036600319011261046b57359160125483101561072a5750610c456020926110a3565b905491519160018060a01b039160031b1c168152f35b5050346101ac57816003193601126101ac576020906003549051908152f35b90503461046b578260031936011261046b5760209250549051908152f35b5050346101ac57816003193601126101ac57602090600f549051908152f35b9190503461046b57602036600319011261046b578135906003821015610aaf5783546001600160a01b031633148015610ea8575b610cf4906112a9565b60ff60105416600681101580610e95578482141580610e87575b610d17906111b0565b610e745715610e22575b6010549260ff84166006811015610e0f57600103610de05784600184148015610dd3575b610d4e90611323565b610dc057600e80543360081b610100600160a81b03166001600160b01b031990911660ff86161717905554600290610d8690426111ec565b9384600f5560ff191617601055519182527fc4c4bff1bbd730f214a9910a0ced506484c88e68e46c0651e4e4c5c80b39f93660203393a380f35b634e487b7160e01b855260219052602484fd5b5085905060028414610d45565b6020606492519162461bcd60e51b8352820152600a602482015269139bdd081b1bd8dad95960b21b6044820152fd5b634e487b7160e01b865260218252602486fd5b6007544210610e4557610e3860095415156112e7565b610e406113f2565b610d21565b5162461bcd60e51b8152602081840152600a60248201526929ba34b6361037b832b760b11b6044820152606490fd5b634e487b7160e01b855260218452602485fd5b508590506005821415610d0e565b634e487b7160e01b865260218552602486fd5b503384526011602052808420541515610ceb565b5050346101ac57816003193601126101ac5760209060ff600e5460a81c1690519015158152f35b82843461072a578060031936011261072a5781519080600d54600181811c91818116801561101d575b602098898510821461100a5750918391899593889586529081600014610fe95750600114610f8d575b5050610f47925095939295038261106b565b82519382859384528251928382860152825b848110610f7757505050828201840152601f01601f19168101030190f35b8181018301518882018801528795508201610f59565b600d86527fd7b6990105719101dabeb77144f2a3385c8033acd3af97e9423a695e81ad1eb59492508591905b818310610fd1575088945050820101610f4788610f35565b85548884018501529485019487945091830191610fb9565b915050610f4794925060ff191682840152151560051b820101869288610f35565b634e487b7160e01b875260229052602486fd5b92607f1692610f0c565b5050346101ac57816003193601126101ac57905490516001600160a01b039091168152602090f35b8490346101ac57816003193601126101ac57602090600b548152f35b90601f8019910116810190811067ffffffffffffffff82111761108d57604052565b634e487b7160e01b600052604160045260246000fd5b6012548110156110da5760126000527fbb8a6a4669ba250d26cd7a459eca9d215f8307e33aebe50379bc5a3617ec34440190600090565b634e487b7160e01b600052603260045260246000fd5b919082039182116110fd57565b634e487b7160e01b600052601160045260246000fd5b60ff6010541660068110156111635761115e57600954600854811461115857600754421015908161114e575b5061114957600090565b600190565b905015153861113f565b50600190565b600090565b634e487b7160e01b600052602160045260246000fd5b1561118057565b60405162461bcd60e51b81526020600482015260086024820152672737ba1037b832b760c11b6044820152606490fd5b156111b757565b60405162461bcd60e51b815260206004820152600d60248201526c115cd8dc9bddc818db1bdcd959609a1b6044820152606490fd5b919082018092116110fd57565b6009546008548114801561125b575b15611224571561121c5761121a6113f2565b565b61121a611501565b60405162461bcd60e51b815260206004820152600f60248201526e10d85b9b9bdd081b1bd8dac81e595d608a1b6044820152606490fd5b50600754421015611208565b7f9b779b17422d0df92223018b32b4d1fa46e071723d6817e2486d003becc55f0060028154146112975760029055565b604051633ee5aeb560e01b8152600490fd5b156112b057565b60405162461bcd60e51b815260206004820152600f60248201526e139bdd081c185c9d1a58da5c185b9d608a1b6044820152606490fd5b156112ee57565b60405162461bcd60e51b815260206004820152600d60248201526c27379037b83837b9b4ba34b7b760991b6044820152606490fd5b1561132a57565b60405162461bcd60e51b815260206004820152600f60248201526e496e76616c6964206f7574636f6d6560881b6044820152606490fd5b6007544211156113b8576009541561121c5760405162461bcd60e51b815260206004820152601b60248201527f416374697665206f70706f736974696f6e206d757374206c6f636b00000000006044820152606490fd5b60405162461bcd60e51b8152602060048201526012602482015271233ab73234b7339039ba34b6361037b832b760711b6044820152606490fd5b60ff601054166006811015611163576114c5576009546114138115156112e7565b600060085480921060001461149b5750507fc5d59e7b090c03cf8ea685500f0ed3f44d0a55e361f0e09734adb9965bc46f0a60085461145560095480926110f0565b90600a5561146d8160018060a01b0360005416611856565b6010805460ff19166001179055600a54600954604080519283526020830191909152810191909152606090a1565b7fc5d59e7b090c03cf8ea685500f0ed3f44d0a55e361f0e09734adb9965bc46f0a91600a5561146d565b60405162461bcd60e51b8152602060048201526014602482015273105b1c9958591e481d1c985b9cda5d1a5bdb995960621b6044820152606490fd5b60105460ff811660068110156111635761151b9015611179565b6009546115795760ff19166005176010556000547fa761582a460180d55522f9f5fdc076390a1f48a7a62a8afbd45c1bb797948edb90604090479061156a9082906001600160a01b0316611856565b815190815260006020820152a1565b60405162461bcd60e51b81526020600482015260116024820152704f70706f736974696f6e2065786973747360781b6044820152606490fd5b818102929181159184041417156110fd57565b9060039182811015928361116357600180831494858015611849575b1561180c57600a549182156117c75760095493841561160081156112e7565b6004918260ff19601054161760105561161987876111ec565b9961163461271061162c8d8554906115b2565b04809c6110f0565b958b6117ac575b61179757156116a557505050507f9a2087478f16b801ecd568a6676f5db758bda2a01b954b2c754257d11eb3770b9394956116836116a09260018060a01b0360005416611856565b604051938493846040919493926060820195825260208201520152565b0390a2565b8360009592939495905b6116e6575b5050505050506116a07f9a2087478f16b801ecd568a6676f5db758bda2a01b954b2c754257d11eb3770b939495611683565b6012805482101561179157846116fb836110a3565b60018060a01b03915490861b1c16918260005260116020818152604092836000205480156117855761172d908a6115b2565b9461177257508c9285949260009261174c978452528120550490611856565b600019811461175d578501856116af565b601185634e487b7160e01b6000525260246000fd5b8a634e487b7160e01b6000525260246000fd5b5050505050505061174c565b506116b4565b602184634e487b7160e01b6000525260246000fd5b85546117c2908d906001600160a01b0316611856565b61163b565b60405162461bcd60e51b815260206004820152601760248201527f4e6f206c6f636b65642063726561746f72207374616b650000000000000000006044820152606490fd5b60405162461bcd60e51b8152602060048201526015602482015274496e76616c69642066696e616c206f7574636f6d6560581b6044820152606490fd5b50506000600284146115e1565b811561190357600080808094819460018060a01b03165af1903d156118fd573d9067ffffffffffffffff82116118e9576040519161189e601f8201601f19166020018461106b565b825260203d92013e5b156118ae57565b60405162461bcd60e51b8152602060048201526013602482015272115512081d1c985b9cd9995c8819985a5b1959606a1b6044820152606490fd5b634e487b7160e01b81526041600452602490fd5b506118a7565b505056fea26469706673582212205d01c892fbf2dc1d964853a21cb5e711a159323da3d16952f7ab486139d4e7f864736f6c63430008140033601f610e5e38819003918201601f191660809081019290916001600160401b03841183851017610236578160e09284926040968752833981010312610231576100478161024c565b9060209061005682820161024c565b90848101519160608201519461006e6080840161024c565b9260c061007d60a0830161024c565b91015160017f9b779b17422d0df92223018b32b4d1fa46e071723d6817e2486d003becc55f00556064600b556001600160a01b039283169790949088156101fc5786156101c4574281111561018d579083918260018060a01b0319968b886000541617600055168660015416176001558760025560035516836004541617600455169060055416176005556006556007548134036101575761ffff19166101001760075583519081527f2da466a7b24304f47e87fa2e1e5a81b9831ce54fec19055ce277ca2f39ba42c49190a251610bfd90816102618239f35b845162461bcd60e51b815260048101849052600f60248201526e496e636f7272656374207374616b6560881b6044820152606490fd5b895162461bcd60e51b815260048101899052601060248201526f496e76616c696420646561646c696e6560801b6044820152606490fd5b895162461bcd60e51b815260048101899052601160248201527005374616b65206d757374206265203e203607c1b6044820152606490fd5b895162461bcd60e51b815260048101899052600e60248201526d496e76616c69642070617274794160901b6044820152606490fd5b600080fd5b634e487b7160e01b600052604160045260246000fd5b51906001600160a01b03821682036102315756fe608060408181526004918236101561001657600080fd5b600092833560e01c9182630695c46c14610a705750816310e1d8ca14610a485781631263d7d214610929578163216e283f1461090a578163232877d0146108eb57816324a9d853146108cc57816329040113146108a35781633d08d0e6146107965781633d86517f1461076f5781634bb278f31461059757816360c7dc471461057857816360c926131461054f57816361d027b314610527578163796b23bb1461050857816379e2b513146104db578163afadb9ab146104b4578163c19d93fb14610476578163d0e30db014610205578163dfbf53ae146101dc578163f240f7c314610137575063fe25e00a1461010c57600080fd5b3461013357816003193601126101335760055490516001600160a01b039091168152602090f35b5080fd5b83903461013357816003193601126101335760ff6007541690808210156101c9575060016101659114610af8565b805461018690336001600160a01b03918216149081156101bb575b50610b31565b600160ff19600a541617600a55337f695fbf2fe28b4fde5705122279ffc4160ebfc0f45e4d96f7e6699001be5062ef8280a280f35b905060015416331483610180565b634e487b7160e01b835260219052602482fd5b505034610133578160031936011261013357600c5490516001600160a01b039091168152602090f35b919050826003193601126104725761021b610ac8565b600791825460ff81168281101561045f576102369015610a91565b600354421161042a5760025434036103f5576001546001600160a01b03919082168061033a57505084541633146103025750336bffffffffffffffffffffffff60a01b60015416176001556201000062ff000019835416178255513481527f2da466a7b24304f47e87fa2e1e5a81b9831ce54fec19055ce277ca2f39ba42c460203392a25b805460ff8160081c16806102f5575b6102e5575b826001600080516020610ba88339815191525580f35b60ff1916600117905538806102cf565b5060ff8160101c166102ca565b6020606492519162461bcd60e51b8352820152601360248201527221b932b0ba37b91031b0b73737ba103537b4b760691b6044820152fd5b9092915033036103c45760ff8260101c1661038d5750620100009062ff00001916178255513481527f2da466a7b24304f47e87fa2e1e5a81b9831ce54fec19055ce277ca2f39ba42c460203392a26102bb565b606490602084519162461bcd60e51b83528201526011602482015270105b1c9958591e4819195c1bdcda5d1959607a1b6044820152fd5b606490602084519162461bcd60e51b8352820152600b60248201526a27b7363c903830b93a3ca160a91b6044820152fd5b506020606492519162461bcd60e51b8352820152600f60248201526e496e636f7272656374207374616b6560881b6044820152fd5b506020606492519162461bcd60e51b8352820152600f60248201526e119d5b991a5b99c8195e1c1a5c9959608a1b6044820152fd5b634e487b7160e01b865260218352602486fd5b8280fd5b83833461013357816003193601126101335760ff60075416905191838210156104a157602083838152f35b634e487b7160e01b815260218452602490fd5b50503461013357816003193601126101335760209060ff60075460081c1690519015158152f35b505034610133578160031936011261013357600754905160189190911c6001600160a01b03168152602090f35b5050346101335781600319360112610133576020906003549051908152f35b9050346104725782600319360112610472575490516001600160a01b03909116815260209150f35b50503461013357816003193601126101335760085490516001600160a01b039091168152602090f35b5050346101335781600319360112610133576020906002549051908152f35b8383346101335781600319360112610133576105b1610ac8565b6007549060ff82168481101561075c5760016105cd9114610af8565b60ff600a541661072f576105e46009544211610b6f565b600254918260011b928084046002149015171561071c57600b5480840290848204148415171561070957612710900492838103918183116106f657908580808088819b9660029b9760018060a01b039c828e809460181c166bffffffffffffffffffffffff60a01b600c541617600c5560ff19161760075554168282156106ed575bf1156106e157818084819389600c541690898491146106d8575bf1156106ce577f502ff417105b720868ddf6004251e88263577903b54ae0915462ab5050eb9c149293600c54169382519182526020820152a26001600080516020610ba88339815191525580f35b81513d86823e3d90fd5b506108fc610680565b508251903d90823e3d90fd5b506108fc610666565b634e487b7160e01b865260118752602486fd5b634e487b7160e01b855260118652602485fd5b634e487b7160e01b845260118552602484fd5b5162461bcd60e51b81526020818501526008602482015267111a5cdc1d5d195960c21b6044820152606490fd5b634e487b7160e01b845260218552602484fd5b50503461013357816003193601126101335760209060ff60075460101c1690519015158152f35b919050346104725760203660031901126104725781356001600160a01b03818116929183810361089f576007549160ff83168681101561088c57906107e060016107f39314610af8565b80885416331490811561087e5750610b31565b6301000000600160b81b031990911660189190911b6301000000600160b81b031617600755600880546001600160a01b03191633179055600654429081019390841061086b575082600955519182527f91858fc926d2a983cc74a4f6f23762cdb4ad201847791417de5f5a62d049eeff60203393a380f35b634e487b7160e01b855260119052602484fd5b905060015416331438610180565b634e487b7160e01b885260218752602488fd5b8580fd5b50503461013357816003193601126101335760015490516001600160a01b039091168152602090f35b505034610133578160031936011261013357602090600b549051908152f35b5050346101335781600319360112610133576020906006549051908152f35b5050346101335781600319360112610133576020906009549051908152f35b905034610472578260031936011261047257610943610ac8565b6007549060ff821681811015610a355761095d9015610a91565b61096a6003544211610b6f565b60ff8260101c16610a00575060ff191660031760075581546002546001600160a01b0391849182918291829186168282156109f7575bf1156109ec5760207fd7dee2702d63ad89917b6a4da9981c90c4d24f8c2bdfd64c604ecae57d8d065191845416926002549051908152a26001600080516020610ba88339815191525580f35b5051903d90823e3d90fd5b506108fc6109a0565b606490602084519162461bcd60e51b8352820152600f60248201526e105b1c9958591e481b585d18da1959608a1b6044820152fd5b634e487b7160e01b855260218252602485fd5b505034610133578160031936011261013357905490516001600160a01b039091168152602090f35b84903461013357816003193601126101335760209060ff600a541615158152f35b15610a9857565b60405162461bcd60e51b81526020600482015260086024820152672737ba1037b832b760c11b6044820152606490fd5b600080516020610ba88339815191526002815414610ae65760029055565b604051633ee5aeb560e01b8152600490fd5b15610aff57565b60405162461bcd60e51b815260206004820152600a602482015269139bdd081b1bd8dad95960b21b6044820152606490fd5b15610b3857565b60405162461bcd60e51b815260206004820152600f60248201526e139bdd081c185c9d1a58da5c185b9d608a1b6044820152606490fd5b15610b7657565b60405162461bcd60e51b8152602060048201526009602482015268546f6f206561726c7960b81b6044820152606490fdfe9b779b17422d0df92223018b32b4d1fa46e071723d6817e2486d003becc55f00a26469706673582212207cb67012611497c2b4c709ed1175df0c76e918f7b99552afb16a97b681b5d10e64736f6c63430008140033a2646970667358221220ae5b91cef1fd1ac9662d191fe201631e82522f8ff3eb2d6e231443a6dfb72ba464736f6c63430008140033",
  "linkReferences": {},
  "deployedLinkReferences": {}
}