{
  "_format": "hh-sol-artifact-1",
  "contractName": "PreDEXEscrow",
  "sourceName": "contracts/PreDEXEscrow.sol",
  "abi": [
    {
      "inputs": [
        {
          "internalType": "address",
          "name": "_partyA",
          "type": "address"
        },
        {
          "internalType": "address",
          "name": "_partyB",
          "type": "address"
        },
        {
          "internalType": "uint256",
          "name": "_stakeAmount",
          "type": "uint256"
        },
        {
          "internalType": "uint256",
          "name": "_fundingDeadline",
          "type": "uint256"
        },
        {
          "internalType": "address",
          "name": "_treasury",
          "type": "address"
        },
        {
          "internalType": "address",
          "name": "_arbiter",
          "type": "address"
        },
        {
          "internalType": "uint256",
          "name": "_disputeWindowSeconds",
          "type": "uint256"
        }
      ],
      "stateMutability": "payable",
      "type": "constructor"
    },
    {
      "inputs": [],
      "name": "ReentrancyGuardReentrantCall",
      "type": "error"
    },
    {
      "anonymous": false,
      "inputs": [
        {
          "indexed": true,
          "internalType": "address",
          "name": "party",
          "type": "address"
        },
        {
          "indexed": false,
          "internalType": "uint256",
          "name": "amount",
          "type": "uint256"
        }
      ],
      "name": "Deposited",
      "type": "event"
    },
    {
      "anonymous": false,
      "inputs": [
        {
          "indexed": true,
          "internalType": "address",
          "name": "by",
          "type": "address"
        }
      ],
      "name": "Disputed",
      "type": "event"
    },
    {
      "anonymous": false,
      "inputs": [
        {
          "indexed": true,
          "internalType": "address",
          "name": "party",
          "type": "address"
        },
        {
          "indexed": false,
          "internalType": "uint256",
          "name": "amount",
          "type": "uint256"
        }
      ],
      "name": "Refunded",
      "type": "event"
    },
    {
      "anonymous": false,
      "inputs": [
        {
          "indexed": true,
          "internalType": "address",
          "name": "winner",
          "type": "address"
        },
        {
          "indexed": false,
          "internalType": "uint256",
          "name": "payout",
          "type": "uint256"
        },
        {
          "indexed": false,
          "internalType": "uint256",
          "name": "fee",
          "type": "uint256"
        }
      ],
      "name": "Resolved",
      "type": "event"
    },
    {
      "anonymous": false,
      "inputs": [
        {
          "indexed": true,
          "internalType": "address",
          "name": "proposedWinner",
          "type": "address"
        },
        {
          "indexed": true,
          "internalType": "address",
          "name": "proposedBy",
          "type": "address"
        },
        {
          "indexed": false,
          "internalType": "uint256",
          "name": "disputeDeadline",
          "type": "uint256"
        }
      ],
      "name": "WinnerProposed",
      "type": "event"
    },
    {
      "inputs": [],
      "name": "arbiter",
      "outputs": [
        {
          "internalType": "address",
          "name": "",
          "type": "address"
        }
      ],
      "stateMutability": "view",
      "type": "function"
    },
    {
      "inputs": [
        {
          "internalType": "address",
          "name": "_winner",
          "type": "address"
        }
      ],
      "name": "arbitrate",
      "outputs": [],
      "stateMutability": "nonpayable",
      "type": "function"
    },
    {
      "inputs": [],
      "name": "deposit",
      "outputs": [],
      "stateMutability": "payable",
      "type": "function"
    },
    {
      "inputs": [],
      "name": "dispute",
      "outputs": [],
      "stateMutability": "nonpayable",
      "type": "function"
    },
    {
      "inputs": [],
      "name": "disputeDeadline",
      "outputs": [
        {
          "internalType": "uint256",
          "name": "",
          "type": "uint256"
        }
      ],
      "stateMutability": "view",
      "type": "function"
    },
    {
      "inputs": [],
      "name": "disputeWindowSeconds",
      "outputs": [
        {
          "internalType": "uint256",
          "name": "",
          "type": "uint256"
        }
      ],
      "stateMutability": "view",
      "type": "function"
    },
    {
      "inputs": [],
      "name": "disputed",
      "outputs": [
        {
          "internalType": "bool",
          "name": "",
          "type": "bool"
        }
      ],
      "stateMutability": "view",
      "type": "function"
    },
    {
      "inputs": [],
      "name": "feeBps",
      "outputs": [
        {
          "internalType": "uint256",
          "name": "",
          "type": "uint256"
        }
      ],
      "stateMutability": "view",
      "type": "function"
    },
    {
      "inputs": [],
      "name": "finalize",
      "outputs": [],
      "stateMutability": "nonpayable",
      "type": "function"
    },
    {
      "inputs": [],
      "name": "fundingDeadline",
      "outputs": [
        {
          "internalType": "uint256",
          "name": "",
          "type": "uint256"
        }
      ],
      "stateMutability": "view",
      "type": "function"
    },
    {
      "inputs": [],
      "name": "partyA",
      "outputs": [
        {
          "internalType": "address",
          "name": "",
          "type": "address"
        }
      ],
      "stateMutability": "view",
      "type": "function"
    },
    {
      "inputs": [],
      "name": "partyB",
      "outputs": [
        {
          "internalType": "address",
          "name": "",
          "type": "address"
        }
      ],
      "stateMutability": "view",
      "type": "function"
    },
    {
      "inputs": [
        {
          "internalType": "address",
          "name": "_winner",
          "type": "address"
        }
      ],
      "name": "proposeWinner",
      "outputs": [],
      "stateMutability": "nonpayable",
      "type": "function"
    },
    {
      "inputs": [],
      "name": "proposedBy",
      "outputs": [
        {
          "internalType": "address",
          "name": "",
          "type": "address"
        }
      ],
      "stateMutability": "view",
      "type": "function"
    },
    {
      "inputs": [],
      "name": "proposedWinner",
      "outputs": [
        {
          "internalType": "address",
          "name": "",
          "type": "address"
        }
      ],
      "stateMutability": "view",
      "type": "function"
    },
    {
      "inputs": [],
      "name": "refundIfUnmatched",
      "outputs": [],
      "stateMutability": "nonpayable",
      "type": "function"
    },
    {
      "inputs": [],
      "name": "stakeAmount",
      "outputs": [
        {
          "internalType": "uint256",
          "name": "",
          "type": "uint256"
        }
      ],
      "stateMutability": "view",
      "type": "function"
    },
    {
      "inputs": [],
      "name": "state",
      "outputs": [
        {
          "internalType": "enum PreDEXEscrow.State",
          "name": "",
          "type": "uint8"
        }
      ],
      "stateMutability": "view",
      "type": "function"
    },
    {
      "inputs": [],
      "name": "treasury",
      "outputs": [
        {
          "internalType": "address",
          "name": "",
          "type": "address"
        }
      ],
      "stateMutability": "view",
      "type": "function"
    },
    {
      "inputs": [],
      "name": "winner",
      "outputs": [
        {
          "internalType": "address",
          "name": "",
          "type": "address"
        }
      ],
      "stateMutability": "view",
      "type": "function"
    }
  ],
  "bytecode": "0x6080601f6200115c38819003918201601f1916830191906001600160401b0383118484101762000367578160e0928592604095865283398101031262000362576200004a826200037d565b9160206200005a8183016200037d565b918381015160608201519162000073608082016200037d565b9060c06200008460a083016200037d565b910151600160005560646008819055986001600160a01b039081169791959188156200032e578116938415620002fa57848914620002c85781169283156200029257169384156200025d578015620002265742821115620001e3578515620001a0578034036200016a577f2da466a7b24304f47e87fa2e1e5a81b9831ce54fec19055ce277ca2f39ba42c49798995060018060a01b03199389856001541617600155846002541617600255600655600755816003541617600355600454161760045560095560ff60a81b19600c5416600c558351348152a251610dc99081620003938239f35b885162461bcd60e51b815260048101889052601060248201526f14185c9d1e50481b5d5cdd08199d5b9960821b60448201528a90fd5b885162461bcd60e51b815260048101889052601660248201527f496e76616c696420646973707574652077696e646f770000000000000000000060448201528a90fd5b885162461bcd60e51b815260048101889052601860248201527f496e76616c69642066756e64696e6720646561646c696e65000000000000000060448201528a90fd5b885162461bcd60e51b815260048101889052601160248201527005374616b65206d757374206265203e203607c1b60448201528a90fd5b885162461bcd60e51b815260048101889052600f60248201526e24b73b30b634b21030b93134ba32b960891b60448201528a90fd5b895162461bcd60e51b815260048101899052601060248201526f496e76616c696420747265617375727960801b60448201528b90fd5b895162461bcd60e51b815260048101899052600c60248201526b53616d65207061727469657360a01b60448201528b90fd5b895162461bcd60e51b815260048101899052600e60248201526d24b73b30b634b2103830b93a3ca160911b60448201528b90fd5b895162461bcd60e51b815260048101899052600e60248201526d496e76616c69642070617274794160901b60448201528b90fd5b600080fd5b634e487b7160e01b600052604160045260246000fd5b51906001600160a01b0382168203620003625756fe6080604081815260048036101561001557600080fd5b600092833560e01c908163012056ad14610a51575080630695c46c14610a2a57806310e1d8ca14610a015780631263d7d2146108d1578063216e283f146108b2578063232877d01461089357806324a9d85314610874578063290401131461084b5780633d08d0e6146106b55780634bb278f31461056257806360c7dc471461054357806360c926131461051a57806361d027b3146104f1578063796b23bb146104d257806379e2b513146104a9578063c19d93fb14610466578063d0e30db0146102f1578063dfbf53ae146102c4578063f240f7c3146101295763fe25e00a146100ff57600080fd5b346101255782600319360112610125575490516001600160a01b03909116815260209150f35b8280fd5b50346101255782600319360112610125576001546001600160a01b0392908316331480156102b7575b61015b90610bfd565b600c549260ff8460a81c166006811015806102a4578482141580610296575b61018390610b85565b6102835760020361025157600a54421161021e57831633146101db57505061ffff60a01b191661030160a01b17600c55337f695fbf2fe28b4fde5705122279ffc4160ebfc0f45e4d96f7e6699001be5062ef8280a280f35b906020606492519162461bcd60e51b8352820152601760248201527f50726f706f7365722063616e6e6f7420646973707574650000000000000000006044820152fd5b815162461bcd60e51b8152602081850152600d60248201526c15da5b991bddc818db1bdcd959609a1b6044820152606490fd5b815162461bcd60e51b8152602081850152600c60248201526b139bdd081c1c9bdc1bdcd95960a21b6044820152606490fd5b634e487b7160e01b865260218452602486fd5b50869050600582141561017a565b634e487b7160e01b875260218552602487fd5b5060025483163314610152565b5050346102ed57816003193601126102ed5760055490516001600160a01b039091168152602090f35b5080fd5b508260031936011261012557600c549060ff8260a81c16600681101580610453578282141580610445575b61032590610b85565b6002546001600160a01b0316330361041457610401576103459015610bc1565b60075442116103cc576006543403610397575060ff60a81b1916600160a81b17600c555134815233907f2da466a7b24304f47e87fa2e1e5a81b9831ce54fec19055ce277ca2f39ba42c490602090a280f35b606490602084519162461bcd60e51b8352820152600f60248201526e496e636f7272656374207374616b6560881b6044820152fd5b606490602084519162461bcd60e51b8352820152600f60248201526e119d5b991a5b99c8195e1c1a5c9959608a1b6044820152fd5b634e487b7160e01b855260218252602485fd5b845162461bcd60e51b8152602081850152600b60248201526a27b7363c903830b93a3ca160a91b6044820152606490fd5b50859050600582141561031c565b634e487b7160e01b865260218352602486fd5b509190346102ed57816003193601126102ed5760ff600c5460a81c16905191600682101561049657602083838152f35b634e487b7160e01b815260218452602490fd5b5050346102ed57816003193601126102ed57600b5490516001600160a01b039091168152602090f35b5050346102ed57816003193601126102ed576020906007549051908152f35b5050346102ed57816003193601126102ed5760035490516001600160a01b039091168152602090f35b5050346102ed57816003193601126102ed57600c5490516001600160a01b039091168152602090f35b5050346102ed57816003193601126102ed576020906006549051908152f35b50903461012557826003193601126101255760ff600c5460a81c1660068110156106a257808361059b9214159081610696575b50610b85565b6105a3610c78565b600c5460ff8160a81c1660068110156106835760020361064e5760a01c60ff1661062057600a544211156105ef57600b5483906105e8906001600160a01b0316610c9b565b6001815580f35b906020606492519162461bcd60e51b8352820152600b60248201526a2bb4b73237bb9037b832b760a91b6044820152fd5b906020606492519162461bcd60e51b83528201526008602482015267111a5cdc1d5d195960c21b6044820152fd5b815162461bcd60e51b8152602081850152600f60248201526e4e6f742066696e616c697a61626c6560881b6044820152606490fd5b634e487b7160e01b855260218452602485fd5b60059150141538610595565b634e487b7160e01b845260218352602484fd5b509034610125576020366003190112610125576001600160a01b0382358181169290839003610847578160015416803314801561083a575b6106f690610bfd565b600c549060ff8260a81c16600681101580610827578782141580610819575b61071e90610b85565b610806576001036107d657841480156107c9575b61073b90610c3b565b836bffffffffffffffffffffffff60a01b600b541617600b556009544201948542116107b65750600a859055600161ff0160a01b0319163360ff60a81b191617600160a91b17600c819055905193845216917f91858fc926d2a983cc74a4f6f23762cdb4ad201847791417de5f5a62d049eeff90602090a380f35b634e487b7160e01b875260119052602486fd5b5060025483168414610732565b825162461bcd60e51b8152602081880152600a602482015269139bdd08199d5b99195960b21b6044820152606490fd5b634e487b7160e01b885260218752602488fd5b508890506005821415610715565b634e487b7160e01b895260218852602489fd5b50600254831633146106ed565b8480fd5b5050346102ed57816003193601126102ed5760025490516001600160a01b039091168152602090f35b5050346102ed57816003193601126102ed576020906008549051908152f35b5050346102ed57816003193601126102ed576020906009549051908152f35b5050346102ed57816003193601126102ed57602090600a549051908152f35b503461012557826003193601126101255760ff600c5460a81c1660068110156109ee57808261090892141590816106965750610b85565b610910610c78565b600c549060ff8260a81c1660068110156104015761092e9015610bc1565b6007544211156109bc575060ff60a81b1916600560a81b17600c5560015447906001600160a01b03908490819081908190869086168282156109b3575bf1156109a7577fd7dee2702d63ad89917b6a4da9981c90c4d24f8c2bdfd64c604ecae57d8d065191602091600154169351908152a26001815580f35b505051903d90823e3d90fd5b506108fc61096b565b606490602084519162461bcd60e51b8352820152600c60248201526b233ab73234b7339037b832b760a11b6044820152fd5b634e487b7160e01b845260218252602484fd5b5050346102ed57816003193601126102ed5760015490516001600160a01b039091168152602090f35b5050346102ed57816003193601126102ed5760209060ff600c5460a01c1690519015158152f35b9050839134610125576020366003190112610125578035916001600160a01b039182841691828503610b8157838254163303610b53575060ff600c5460a81c166006811015610b34578082610aae9214159081610b475750610b85565b610ab6610c78565b60ff600c5460a81c166006811015610b3457600303610b02575081610aef916105e89493600154168114918215610af4575b5050610c3b565b610c9b565b600254161490508580610ae8565b606490602087519162461bcd60e51b8352820152600c60248201526b139bdd08191a5cdc1d5d195960a21b6044820152fd5b634e487b7160e01b865260218252602486fd5b60059150141588610595565b602060649262461bcd60e51b8352820152600b60248201526a2737ba1030b93134ba32b960a91b6044820152fd5b8580fd5b15610b8c57565b60405162461bcd60e51b815260206004820152600d60248201526c115cd8dc9bddc818db1bdcd959609a1b6044820152606490fd5b15610bc857565b60405162461bcd60e51b815260206004820152600d60248201526c496e76616c696420737461746560981b6044820152606490fd5b15610c0457565b60405162461bcd60e51b815260206004820152600f60248201526e139bdd081c185c9d1a58da5c185b9d608a1b6044820152606490fd5b15610c4257565b60405162461bcd60e51b815260206004820152600e60248201526d24b73b30b634b2103bb4b73732b960911b6044820152606490fd5b600260005414610c89576002600055565b604051633ee5aeb560e01b8152600490fd5b600c805460ff60a81b1916600160aa1b179055600580546001600160a01b0319166001600160a01b0392831690811790915560085490919047908082029082158383049091141715610d7d5761271090049081810392818411610d7d576000808085819460035416828215610d74575bf115610d5e5782848360009314610d6a575b600092839283928392f115610d5e577f502ff417105b720868ddf6004251e88263577903b54ae0915462ab5050eb9c149160409182519182526020820152a2565b6040513d6000823e3d90fd5b6108fc9250610d1d565b506108fc610d0b565b634e487b7160e01b600052601160045260246000fdfea2646970667358221220762a3dd2978b1fc685d0405f4888969fc4478f3e6adda71fed69622864b6615064736f6c63430008140033",
  "linkReferences": {},
  "deployedLinkReferences": {}
}