{
  "_format": "hh-sol-artifact-1",
  "contractName": "PreDEXEscrow",
  "sourceName": "contracts/PreDEXEscrow.sol",
  "abi": [
    {
      "inputs": [
        {
          "internalType": "address",
          "name": "_partyA",
          "type": "address"
        },
        {
          "internalType": "address",
          "name": "_partyB",
          "type": "address"
        },
        {
          "internalType": "uint256",
          "name": "_stakeAmount",
          "type": "uint256"
        },
        {
          "internalType": "uint256",
          "name": "_fundingDeadline",
          "type": "uint256"
        },
        {
          "internalType": "address",
          "name": "_treasury",
          "type": "address"
        },
        {
          "internalType": "address",
          "name": "_arbiter",
          "type": "address"
        },
        {
          "internalType": "uint256",
          "name": "_disputeWindowSeconds",
          "type": "uint256"
        }
      ],
      "stateMutability": "payable",
      "type": "constructor"
    },
    {
      "inputs": [],
      "name": "ReentrancyGuardReentrantCall",
      "type": "error"
    },
    {
      "anonymous": false,
      "inputs": [
        {
          "indexed": true,
          "internalType": "address",
          "name": "party",
          "type": "address"
        },
        {
          "indexed": false,
          "internalType": "uint256",
          "name": "amount",
          "type": "uint256"
        }
      ],
      "name": "Deposited",
      "type": "event"
    },
    {
      "anonymous": false,
      "inputs": [
        {
          "indexed": true,
          "internalType": "address",
          "name": "by",
          "type": "address"
        }
      ],
      "name": "Disputed",
      "type": "event"
    },
    {
      "anonymous": false,
      "inputs": [
        {
          "indexed": true,
          "internalType": "address",
          "name": "party",
          "type": "address"
        },
        {
          "indexed": false,
          "internalType": "uint256",
          "name": "amount",
          "type": "uint256"
        }
      ],
      "name": "Refunded",
      "type": "event"
    },
    {
      "anonymous": false,
      "inputs": [
        {
          "indexed": true,
          "internalType": "address",
          "name": "winner",
          "type": "address"
        },
        {
          "indexed": false,
          "internalType": "uint256",
          "name": "payout",
          "type": "uint256"
        },
        {
          "indexed": false,
          "internalType": "uint256",
          "name": "fee",
          "type": "uint256"
        }
      ],
      "name": "Resolved",
      "type": "event"
    },
    {
      "anonymous": false,
      "inputs": [
        {
          "indexed": true,
          "internalType": "address",
          "name": "proposedWinner",
          "type": "address"
        },
        {
          "indexed": true,
          "internalType": "address",
          "name": "proposedBy",
          "type": "address"
        },
        {
          "indexed": false,
          "internalType": "uint256",
          "name": "disputeDeadline",
          "type": "uint256"
        }
      ],
      "name": "WinnerProposed",
      "type": "event"
    },
    {
      "inputs": [],
      "name": "arbiter",
      "outputs": [
        {
          "internalType": "address",
          "name": "",
          "type": "address"
        }
      ],
      "stateMutability": "view",
      "type": "function"
    },
    {
      "inputs": [],
      "name": "deposit",
      "outputs": [],
      "stateMutability": "payable",
      "type": "function"
    },
    {
      "inputs": [],
      "name": "depositedA",
      "outputs": [
        {
          "internalType": "bool",
          "name": "",
          "type": "bool"
        }
      ],
      "stateMutability": "view",
      "type": "function"
    },
    {
      "inputs": [],
      "name": "depositedB",
      "outputs": [
        {
          "internalType": "bool",
          "name": "",
          "type": "bool"
        }
      ],
      "stateMutability": "view",
      "type": "function"
    },
    {
      "inputs": [],
      "name": "dispute",
      "outputs": [],
      "stateMutability": "nonpayable",
      "type": "function"
    },
    {
      "inputs": [],
      "name": "disputeDeadline",
      "outputs": [
        {
          "internalType": "uint256",
          "name": "",
          "type": "uint256"
        }
      ],
      "stateMutability": "view",
      "type": "function"
    },
    {
      "inputs": [],
      "name": "disputeWindowSeconds",
      "outputs": [
        {
          "internalType": "uint256",
          "name": "",
          "type": "uint256"
        }
      ],
      "stateMutability": "view",
      "type": "function"
    },
    {
      "inputs": [],
      "name": "disputed",
      "outputs": [
        {
          "internalType": "bool",
          "name": "",
          "type": "bool"
        }
      ],
      "stateMutability": "view",
      "type": "function"
    },
    {
      "inputs": [],
      "name": "feeBps",
      "outputs": [
        {
          "internalType": "uint256",
          "name": "",
          "type": "uint256"
        }
      ],
      "stateMutability": "view",
      "type": "function"
    },
    {
      "inputs": [],
      "name": "finalize",
      "outputs": [],
      "stateMutability": "nonpayable",
      "type": "function"
    },
    {
      "inputs": [],
      "name": "fundingDeadline",
      "outputs": [
        {
          "internalType": "uint256",
          "name": "",
          "type": "uint256"
        }
      ],
      "stateMutability": "view",
      "type": "function"
    },
    {
      "inputs": [],
      "name": "partyA",
      "outputs": [
        {
          "internalType": "address",
          "name": "",
          "type": "address"
        }
      ],
      "stateMutability": "view",
      "type": "function"
    },
    {
      "inputs": [],
      "name": "partyB",
      "outputs": [
        {
          "internalType": "address",
          "name": "",
          "type": "address"
        }
      ],
      "stateMutability": "view",
      "type": "function"
    },
    {
      "inputs": [
        {
          "internalType": "address",
          "name": "_winner",
          "type": "address"
        }
      ],
      "name": "proposeWinner",
      "outputs": [],
      "stateMutability": "nonpayable",
      "type": "function"
    },
    {
      "inputs": [],
      "name": "proposedBy",
      "outputs": [
        {
          "internalType": "address",
          "name": "",
          "type": "address"
        }
      ],
      "stateMutability": "view",
      "type": "function"
    },
    {
      "inputs": [],
      "name": "proposedWinner",
      "outputs": [
        {
          "internalType": "address",
          "name": "",
          "type": "address"
        }
      ],
      "stateMutability": "view",
      "type": "function"
    },
    {
      "inputs": [],
      "name": "refundIfUnmatched",
      "outputs": [],
      "stateMutability": "nonpayable",
      "type": "function"
    },
    {
      "inputs": [],
      "name": "stakeAmount",
      "outputs": [
        {
          "internalType": "uint256",
          "name": "",
          "type": "uint256"
        }
      ],
      "stateMutability": "view",
      "type": "function"
    },
    {
      "inputs": [],
      "name": "state",
      "outputs": [
        {
          "internalType": "enum PreDEXEscrow.State",
          "name": "",
          "type": "uint8"
        }
      ],
      "stateMutability": "view",
      "type": "function"
    },
    {
      "inputs": [],
      "name": "treasury",
      "outputs": [
        {
          "internalType": "address",
          "name": "",
          "type": "address"
        }
      ],
      "stateMutability": "view",
      "type": "function"
    },
    {
      "inputs": [],
      "name": "winner",
      "outputs": [
        {
          "internalType": "address",
          "name": "",
          "type": "address"
        }
      ],
      "stateMutability": "view",
      "type": "function"
    }
  ],
  "bytecode": "0x601f610e5e38819003918201601f191660809081019290916001600160401b03841183851017610236578160e09284926040968752833981010312610231576100478161024c565b9060209061005682820161024c565b90848101519160608201519461006e6080840161024c565b9260c061007d60a0830161024c565b91015160017f9b779b17422d0df92223018b32b4d1fa46e071723d6817e2486d003becc55f00556064600b556001600160a01b039283169790949088156101fc5786156101c4574281111561018d579083918260018060a01b0319968b886000541617600055168660015416176001558760025560035516836004541617600455169060055416176005556006556007548134036101575761ffff19166101001760075583519081527f2da466a7b24304f47e87fa2e1e5a81b9831ce54fec19055ce277ca2f39ba42c49190a251610bfd90816102618239f35b845162461bcd60e51b815260048101849052600f60248201526e496e636f7272656374207374616b6560881b6044820152606490fd5b895162461bcd60e51b815260048101899052601060248201526f496e76616c696420646561646c696e6560801b6044820152606490fd5b895162461bcd60e51b815260048101899052601160248201527005374616b65206d757374206265203e203607c1b6044820152606490fd5b895162461bcd60e51b815260048101899052600e60248201526d496e76616c69642070617274794160901b6044820152606490fd5b600080fd5b634e487b7160e01b600052604160045260246000fd5b51906001600160a01b03821682036102315756fe608060408181526004918236101561001657600080fd5b600092833560e01c9182630695c46c14610a705750816310e1d8ca14610a485781631263d7d214610929578163216e283f1461090a578163232877d0146108eb57816324a9d853146108cc57816329040113146108a35781633d08d0e6146107965781633d86517f1461076f5781634bb278f31461059757816360c7dc471461057857816360c926131461054f57816361d027b314610527578163796b23bb1461050857816379e2b513146104db578163afadb9ab146104b4578163c19d93fb14610476578163d0e30db014610205578163dfbf53ae146101dc578163f240f7c314610137575063fe25e00a1461010c57600080fd5b3461013357816003193601126101335760055490516001600160a01b039091168152602090f35b5080fd5b83903461013357816003193601126101335760ff6007541690808210156101c9575060016101659114610af8565b805461018690336001600160a01b03918216149081156101bb575b50610b31565b600160ff19600a541617600a55337f695fbf2fe28b4fde5705122279ffc4160ebfc0f45e4d96f7e6699001be5062ef8280a280f35b905060015416331483610180565b634e487b7160e01b835260219052602482fd5b505034610133578160031936011261013357600c5490516001600160a01b039091168152602090f35b919050826003193601126104725761021b610ac8565b600791825460ff81168281101561045f576102369015610a91565b600354421161042a5760025434036103f5576001546001600160a01b03919082168061033a57505084541633146103025750336bffffffffffffffffffffffff60a01b60015416176001556201000062ff000019835416178255513481527f2da466a7b24304f47e87fa2e1e5a81b9831ce54fec19055ce277ca2f39ba42c460203392a25b805460ff8160081c16806102f5575b6102e5575b826001600080516020610ba88339815191525580f35b60ff1916600117905538806102cf565b5060ff8160101c166102ca565b6020606492519162461bcd60e51b8352820152601360248201527221b932b0ba37b91031b0b73737ba103537b4b760691b6044820152fd5b9092915033036103c45760ff8260101c1661038d5750620100009062ff00001916178255513481527f2da466a7b24304f47e87fa2e1e5a81b9831ce54fec19055ce277ca2f39ba42c460203392a26102bb565b606490602084519162461bcd60e51b83528201526011602482015270105b1c9958591e4819195c1bdcda5d1959607a1b6044820152fd5b606490602084519162461bcd60e51b8352820152600b60248201526a27b7363c903830b93a3ca160a91b6044820152fd5b506020606492519162461bcd60e51b8352820152600f60248201526e496e636f7272656374207374616b6560881b6044820152fd5b506020606492519162461bcd60e51b8352820152600f60248201526e119d5b991a5b99c8195e1c1a5c9959608a1b6044820152fd5b634e487b7160e01b865260218352602486fd5b8280fd5b83833461013357816003193601126101335760ff60075416905191838210156104a157602083838152f35b634e487b7160e01b815260218452602490fd5b50503461013357816003193601126101335760209060ff60075460081c1690519015158152f35b505034610133578160031936011261013357600754905160189190911c6001600160a01b03168152602090f35b5050346101335781600319360112610133576020906003549051908152f35b9050346104725782600319360112610472575490516001600160a01b03909116815260209150f35b50503461013357816003193601126101335760085490516001600160a01b039091168152602090f35b5050346101335781600319360112610133576020906002549051908152f35b8383346101335781600319360112610133576105b1610ac8565b6007549060ff82168481101561075c5760016105cd9114610af8565b60ff600a541661072f576105e46009544211610b6f565b600254918260011b928084046002149015171561071c57600b5480840290848204148415171561070957612710900492838103918183116106f657908580808088819b9660029b9760018060a01b039c828e809460181c166bffffffffffffffffffffffff60a01b600c541617600c5560ff19161760075554168282156106ed575bf1156106e157818084819389600c541690898491146106d8575bf1156106ce577f502ff417105b720868ddf6004251e88263577903b54ae0915462ab5050eb9c149293600c54169382519182526020820152a26001600080516020610ba88339815191525580f35b81513d86823e3d90fd5b506108fc610680565b508251903d90823e3d90fd5b506108fc610666565b634e487b7160e01b865260118752602486fd5b634e487b7160e01b855260118652602485fd5b634e487b7160e01b845260118552602484fd5b5162461bcd60e51b81526020818501526008602482015267111a5cdc1d5d195960c21b6044820152606490fd5b634e487b7160e01b845260218552602484fd5b50503461013357816003193601126101335760209060ff60075460101c1690519015158152f35b919050346104725760203660031901126104725781356001600160a01b03818116929183810361089f576007549160ff83168681101561088c57906107e060016107f39314610af8565b80885416331490811561087e5750610b31565b6301000000600160b81b031990911660189190911b6301000000600160b81b031617600755600880546001600160a01b03191633179055600654429081019390841061086b575082600955519182527f91858fc926d2a983cc74a4f6f23762cdb4ad201847791417de5f5a62d049eeff60203393a380f35b634e487b7160e01b855260119052602484fd5b905060015416331438610180565b634e487b7160e01b885260218752602488fd5b8580fd5b50503461013357816003193601126101335760015490516001600160a01b039091168152602090f35b505034610133578160031936011261013357602090600b549051908152f35b5050346101335781600319360112610133576020906006549051908152f35b5050346101335781600319360112610133576020906009549051908152f35b905034610472578260031936011261047257610943610ac8565b6007549060ff821681811015610a355761095d9015610a91565b61096a6003544211610b6f565b60ff8260101c16610a00575060ff191660031760075581546002546001600160a01b0391849182918291829186168282156109f7575bf1156109ec5760207fd7dee2702d63ad89917b6a4da9981c90c4d24f8c2bdfd64c604ecae57d8d065191845416926002549051908152a26001600080516020610ba88339815191525580f35b5051903d90823e3d90fd5b506108fc6109a0565b606490602084519162461bcd60e51b8352820152600f60248201526e105b1c9958591e481b585d18da1959608a1b6044820152fd5b634e487b7160e01b855260218252602485fd5b505034610133578160031936011261013357905490516001600160a01b039091168152602090f35b84903461013357816003193601126101335760209060ff600a541615158152f35b15610a9857565b60405162461bcd60e51b81526020600482015260086024820152672737ba1037b832b760c11b6044820152606490fd5b600080516020610ba88339815191526002815414610ae65760029055565b604051633ee5aeb560e01b8152600490fd5b15610aff57565b60405162461bcd60e51b815260206004820152600a602482015269139bdd081b1bd8dad95960b21b6044820152606490fd5b15610b3857565b60405162461bcd60e51b815260206004820152600f60248201526e139bdd081c185c9d1a58da5c185b9d608a1b6044820152606490fd5b15610b7657565b60405162461bcd60e51b8152602060048201526009602482015268546f6f206561726c7960b81b6044820152606490fdfe9b779b17422d0df92223018b32b4d1fa46e071723d6817e2486d003becc55f00a26469706673582212207cb67012611497c2b4c709ed1175df0c76e918f7b99552afb16a97b681b5d10e64736f6c63430008140033",
  "linkReferences": {},
  "deployedLinkReferences": {}
}